:02000002D0002C
:1040000000400D00E8770D00000006000C000501DF
:084010000401DE0500000000C0
:04401800BC730D0068
:1040200009480A49884208B505D0094A824202D0A7
:10403000121A03F07FF90748074A0021121A03F009
:1040400084F9014808BD00BF38E3032044770D0020
:10405000B4E30320B4E30320F0E7032070B500F0DD
:104060007FFD074C074BE41AA40800251E46A54215
:1040700004D056F8253098470135F8E770BD00BFE9
:1040800038770D00FC760D0000F014B808B500F08C
:1040900033F8BDE8084000F025BD00F0DDBA00F0BF
:1040A000DBBA0078B0FA80F0400970470123037052
:1040B0007047000008B500F053FE4FF4165100F0B1
:1040C00043FE0121042001F0F7F8074B0021188876
:1040D00001F0F2F8054B0021188801F0EDF800F02E
:1040E00057F9034B186008BD38E3032040E3032071
:1040F000C8E30320000000002DE9F04F2DED028BF6
:104100006B4B6C4C18886C4F6C4D83B0002101F0E8
:10411000FDF86B4B186023681844206000F038F9F4
:10412000684B1E683B68C01AB0427ED9206802F016
:1041300035FD80463046894602F030FD0022624B54
:10414000624E02F0A1FD02460B464046494602F08F
:10415000C5FE03F091F8306002F042FD9FED4C1B6C
:1041600041EC100B01F0A0FA96ED008A18EE100A4F
:104170008DED000B02F034FD9DED000B82468B4669
:1041800045A3D3E9002351EC100B02F07DFD52460C
:10419000804689465B465046594602F075FD40A36D
:1041A000D3E9002302F070FD02460B464046494623
:1041B00002F0B6FBDFED467A68EE277A804617EE0E
:1041C000900A894602F00CFD02460B4640464946DD
:1041D00002F0A8FB34A3D3E9002302F0A3FB03F011
:1041E0004BF8286000F0BCFD0A22216800F023FB98
:1041F00000F0B6FD374900F001FB00F0B1FD96ED8F
:10420000000A022100F0F6FB00F0AAFD314900F09F
:10421000F5FA00F0A5FD022195ED000A00F004FC7E
:104220000023236000F0B4F83860DFED2B7A95EDC1
:10423000007AB4EEE77AF1EE10FAB0EE678A09DDA3
:10424000264B0121188801F048F800F089FD244927
:1042500000F0E7FAD5ED007AF4EEC87AF1EE10FA44
:104260000ED51E4B0021188801F037F800F078FDBC
:104270001C4903B0BDEC028BBDE8F04F00F0D1BA91
:1042800003B0BDEC028BBDE8F08F00BFAFF3008040
:1042900000000000000008409A9999999999F13F0F
:1042A0006666666666660E40D7A3703D0AD7E33F32
:1042B00038E30320C4E30320C8E30320B8E303206A
:1042C000BCE303203CE3032000002440C0E30320C0
:1042D00000000244D0730D000070944644E30320B4
:1042E000D2730D00DC730D0000F012B800F010B8AE
:1042F00008B5024B1B689B68019308BD6802030068
:1043000008B5024B1B68DB68019308BD6802030017
:1043100008B5024B1B681B68019308BD2C02030003
:1043200008B5024B1B689B68019308BD2C02030073
:1043300008B5024B1B68DB68019308BD2C02030023
:1043400008B5024B1B681B69019308BD2C020300D2
:1043500008B5024B1B68DB6C019308BD2C020300FF
:1043600008B5024B1B68DB69019308BD30020300EE
:1043700008B5024B1B681B6A019308BD300203009D
:1043800008B5024B1B685B68019308BD1802030067
:1043900008B5024B1B685B69019308BD1802030056
:1043A00008B5024B1B689B68019308BD48020300D7
:1043B00008B5024B1B681B69019308BD4802030046
:1043C00008B5024B1B685B69019308BD48020300F6
:1043D00008B5024B1B685B6C019308BD48020300E3
:1043E00008B5024B1B689B6C019308BD4802030093
:1043F00008B5024B1B685B69019308BD64020300AA
:1044000008B5024B1B681B68019308BD3C02030002
:1044100008B5024B1B68DB68019308BD3C02030032
:1044200008B5024B1B681B69019308BD3C020300E1
:1044300008B5024B1B685B69019308BD3C02030091
:1044400008B5024B1B689B69019308BD3C02030041
:1044500008B5024B1B68DB69019308BD3C020300F1
:1044600008B5024B1B681B6A019308BD3C020300A0
:1044700008B5024B1B689B6A019308BD3C02030010
:1044800008B5024B1B681B6A019308BD2802030094
:1044900008B5024B1B685B6A019308BD2802030044
:1044A00008B5024B1B689B6A019308BD28020300F4
:1044B00008B5024B1B68DB6A019308BD28020300A4
:1044C00008B5024B1B681B6B019308BD2802030053
:1044D00008B5024B1B685B6B019308BD2802030003
:1044E00008B5024B1B681B6C019308BD2802030032
:1044F00008B5024B1B681B68019308BD4C02030002
:1045000008B5024B1B685B68019308BD4C020300B1
:1045100008B5024B1B681B69019308BD4C020300E0
:1045200008B5024B1B685B69019308BD4C02030090
:1045300008B5024B1B689B69019308BD4C02030040
:1045400008B5024B1B68DB69019308BD4C020300F0
:1045500008B5024B1B681B6A019308BD4C0203009F
:1045600008B5024B1B685B68019308BD200203007D
:1045700008B5034B1B68D3F88830019308BD0000D1
:104580002002030008B5034B1B68D3F89430019355
:1045900008BD00002002030008B5024B1B685B68E1
:1045A000019308BD4002030008B5024B1B689B68DD
:1045B000019308BD4002030008B5024B1B68DB688D
:1045C000019308BD4002030008B5024B1B681B693C
:1045D000019308BD4002030008B5024B1B685B69EC
:1045E000019308BD4002030008B5024B1B689B699C
:1045F000019308BD4002030008B5024B1B68DB694C
:10460000019308BD4002030008B5024B1B681B6AFA
:10461000019308BD4002030008B5024B1B681B6BE9
:10462000019308BD4002030008B5024B1B685B6B99
:10463000019308BD4002030008B5024B1B68DB6B09
:10464000019308BD4402030008B5024B1B681B68B8
:10465000019308BD1C02030008B5024B1B685B6890
:10466000019308BD1C02030008B5024B1B68DB6BFD
:10467000019308BD1C020300002211464068FFF7A9
:10468000C3BF002211464068FFF7CEBF002240683A
:10469000FFF7C2BF002281F001014068FFF7ACBF05
:1046A00000231A4619464068FFF79EBF00231A46AA
:1046B00019464068FFF790BF002211464068FFF797
:1046C00083BF002211464068FFF76EBF002202211F
:1046D0004068FFF771BF00231A464068FFF75CBFD0
:1046E000024B03225A60024A1A607047CCE303204F
:1046F000F0730D00704710B50C21044600F076FEF3
:10470000204610BD10B5054B0360044601710846F4
:10471000FFF726FE0023A360204610BD24740D0081
:104720000079FFF725BE10B50446006818B1FFF701
:1047300093FF0023236010BD10B50446FFF7F3FF7D
:10474000204610BD10B5094C00204FF6FF732060C5
:10475000A080A07120816381FFF702FF2046044AF8
:104760000449BDE8104000F033BE00BFD4E303208D
:10477000B4E3032039470D0010B50446006808B1C2
:10478000FFF72EFE204610BD10B5064C0023204634
:104790002360FFF71DFE2046034A0449BDE8104090
:1047A00000F016BEE0E30320B4E3032079470D00D8
:1047B000F8B506460D468F180024BD420CD033686C
:1047C00015F8011B9B6830469847002801DB04441C
:1047D000F3E7002C08BF04462046F8BD70B5054637
:1047E0000C46084649B102F0E1FD2B68024621461D
:1047F0002846DB68BDE87040184770BD08B5FFF774
:10480000EDFF08BD03689B68184738B50D210546C4
:10481000FFF7F8FF0A2104462846FFF7F3FF20447C
:1048200038BD38B50546FFF7D9FF04462846FFF7DF
:10483000ECFF204438BD30B58BB00B4600218DF81D
:104840002410012A98BF0A220DF12304B3FBF2F5CC
:1048500005FB123303F0FF03092B94BF30333733CA
:10486000DBB2214604F801392B46002DEED1FFF7CB
:10487000B5FF0BB030BD00002DE9F04757EC106BD1
:1048800082460D4610EE102A3B4610EE100A3946BD
:1048900002F094FC08B14E4912E027F000494FF0B5
:1048A000FF324C4B3046494602F088FC68B94FF065
:1048B000FF32484B3046494602F062FC28B946496F
:1048C0005046FFF78BFFBDE8F0874FF06042434B47
:1048D0003046394602F068FC08B14149F0E74FF034
:1048E0006042404B3046394602F040FC0028F4D18B
:1048F000002200233046394602F038FC40B12D2119
:104900005046FFF77FFF07F1004304461F4600E0D3
:10491000044635494FF0000800205FFA88F39D42B5
:1049200006D90022314B02F0D9FA08F10108F4E768
:1049300032463B4601F0F6FF0F46064602F07CFC8D
:104940000A22014680465046FFF775FF0444E5B34E
:10495000404602F023F902460B463046394601F044
:10496000DFFF06460F4650462149FFF737FF044454
:1049700000221E4B3046394602F086F906460F46A5
:1049800002F032FCB0F1000907DA2D215046FFF7A2
:1049900039FFC9F10001804602E049464FF00008A6
:1049A0000A225046FFF747FF40440444484602F0BD
:1049B00005F902460B463046394601F0B1FF013D8C
:1049C00015F0FF0506460F46D2D12046BDE8F08718
:1049D0002C740D00FFFFEF7F36740D00FFFFEF41D9
:1049E00030740D00FFFFEFC10000E03F00002440E5
:1049F00034740D0038B5044610EE100ACDB202F042
:104A0000EFF841EC100B29462046BDE83840FFF78F
:104A100033BF38B5C9B20546FFF72EFF0446284616
:104A2000FFF7F3FE204438BD38B5044610EE100AF7
:104A30000D4602F0D5F841EC100B29462046BDE8A2
:104A40003840FFF7E6BF0000014B024A1A6070478A
:104A5000E4E30320AD740D00024B1A68024B1A60A8
:104A6000704700BF48E30320E8E3032010B58368E4
:104A7000044613B1032201469847204610BD10B5E5
:104A80000446FFF7F3FF204610BD00000348044A28
:104A900004490023836000F09BBC00BFECE30320CB
:104AA000B4E303207F4A0D0008B50C4B33B100F08E
:104AB00057F903681B699847002809DC084B63B164
:104AC00000F0D0F903681B699847002803DC08BD93
:104AD000AFF30080F2E7AFF3008008BD00000000F4
:104AE0000000000008B5FFF7DFFFFFF751FC014BA6
:104AF000186008BD30E703200248034A0349121A30
:104B000002F018BC00F4032004F4032040770D00E9
:104B100007B5002300931A466FF07701FFF732FDC7
:104B200003B05DF804FB000007B543880A2B08D0EA
:104B3000502B09D1094B1B683BB103B05DF804EB66
:104B40001847FFF7E5FF06E0002300931A466FF0D1
:104B50007701FFF717FD03B05DF804FBFCE30320CA
:104B600038B5104C104D2368AB42104B0CBF0122DE
:104B700000221A7002D0FFF7BFFF2560FFF700FC8C
:104B8000044602F0EBFB0A4B13B12046AFF3008062
:104B900000210748FFF750FD00210648BDE83840D6
:104BA000FFF7E6BC00F403201E1C279A00E4032054
:104BB00000000000294B0D00704710B51821044675
:104BC00000F014FC204610BDF0B5037D062B8DB01F
:104BD0000E4600F104074FF0000402D000F1080572
:104BE00018E00CAD394605F8304D2F232A460A202F
:104BF000FFF7FEFB284602F0D9FB33680246DB686C
:104C00002946304698470FE024B12E213046FFF761
:104C1000F9FD044415F8011D0A223046FFF70BFE8A
:104C2000BD420444F0D120460DB0F0BD10B5054B97
:104C30000446112240F8043B002102F086FB204686
:104C400010BD00BF4C750D000346074A10B543F870
:104C5000042B01F1100251F8044B43F8044B91422C
:104C6000F9D10A781A7010BD4C750D0010B59DF879
:104C7000084044EA032343EA024242EA0161042372
:104C80004160037510BD37B50D788B784A78C978C7
:104C900000912946FFF7EAFF03B030BD4174704729
:104CA000704708B50021007CFFF742FC30EA200085
:104CB00028BF4FF0FF3008BD08B50121007CFFF789
:104CC00037FC30EA200028BF4FF0FF3008BD08B5A0
:104CD000007CFFF725FC20EAE07008BD08B5007CE9
:104CE000FFF716FC20EAE07008BD007CFFF730BC3F
:104CF00010B51421044600F079FB204610BD38B5EC
:104D00000446007C0D46FFF70BFC002801DC607CAC
:104D100028B12946207CFFF713FC20EAE07038BD5B
:104D200010B50446002363604FF47A73A360054B0B
:104D3000236001230846217463741146FFF7D8FBF2
:104D4000204610BD60750D000022007CFFF7D8BB27
:104D500010B514220446002102F0F7FA204610BDD7
:104D600030B50E4D87B001A8FFF7F2FF296811F0AA
:104D7000010410D12846FFF794F960B101AA214639
:104D80000748FFF7CDFF2846FFF790F9054A064987
:104D9000034800F01DFB024807B030BD04E40320C7
:104DA00008E40320B4E30320A14C0D0070474174D4
:104DB000704708B5007CFFF75BFB20EAE07008BD98
:104DC00008B5007CFFF72CFB20EAE07008BD08B5B1
:104DD000007CFFF735FB30EA200028BF4FF0FF30A2
:104DE00008BD08B5007CFFF723FB30EA200028BF90
:104DF0004FF0FF3008BD007CFFF72ABB10B514212F
:104E0000044600F0F3FA204610BD70B5457C044618
:104E10000E4625B9007CFFF72BFB002805DD314647
:104E2000207CBDE87040FFF7F3BA284670BD000053
:104E300010B5044608461146002262604FF47A72AB
:104E4000A260054A22600122207462741A46FFF7AC
:104E5000D7FA204610BD00BF90750D00007CFFF70B
:104E6000FFBA000038B50C4D296811F0010411D1CA
:104E70002846FFF716F968B1084A094B0948214648
:104E8000FFF7D6FF2846FFF711F9074A07490548FB
:104E900000F09EFA034838BDB4E40320B8E40320D0
:104EA00030E403201CE40320B4E30320AD4D0D00E7
:104EB0007047F8B5064615460C468F18BC4206D01A
:104EC000336814F8011B9B6830469847F6E728467C
:104ED000F8BD0022007CFFF7D3BA0021007CFFF769
:104EE000D7BA0021007CFFF7DBBA0021007CFFF776
:104EF000DFBA0021007CFFF7E3BA10B514210446A5
:104F000000F074FA204610BD10B50446002363601B
:104F10004FF47A73A360044B217408462360114652
:104F2000FFF7DEFA204610BDC0750D000021007CA1
:104F3000FFF7CEBA002211464068FFF765BB00229A
:104F400011464068FFF770BB00224068FFF764BB62
:104F5000002281F001014068FFF74EBB00231A4692
:104F600001214068FFF740BB00231A4619464068FC
:104F7000FFF732BB002211464068FFF725BB002235
:104F800011464068FFF710BB002202214068FFF77E
:104F900013BB00231A464068FFF7FEBA38B5054632
:104FA00088B104684CB1A3681BB103222146204696
:104FB00098471021204600F019FA28461421BDE830
:104FC000384000F013BA38BD10B103685B68184769
:104FD000704710B503680446BBB15868FFF7E0F9A5
:104FE00078B923685A7C12B95868FFF7E1F9236849
:104FF0005868FFF7E5F920680023236028B1FFF720
:10500000CDFF206808B1FFF7C9FF204610BD38B5B5
:105010000446D0F8C40108B1FFF741F8D4F8C00144
:1050200008B1FFF7DDF9D4F8BC5135B12846FFF7D8
:10503000D0FF0421284600F0D9F9206808B1FFF715
:10504000C3FF204638BD000010B5044B044640F8AD
:10505000083BFFF7DCFF204610BD00BFE8750D00E0
:1050600038B50E4C0E4B23600025022304F5E47086
:105070006360A560C4F8C451C4F8C851FFF7A8F92B
:10508000084BC4F8CC5184F8D05123602046064A1E
:105090000649BDE8384000F09BB900BF3CE503205D
:1050A00050760D00E8750D00B4E3032049500D0063
:1050B000002211464068FFF787BA00221146406877
:1050C000FFF7A2BA002211464068FFF7ADBA0022EE
:1050D0004068FFF7A1BA002281F001014068FFF7A4
:1050E0008BBA00231A4619464068FFF77DBA0023A1
:1050F0001A4619464068FFF76FBA00221146406809
:10510000FFF752BA002202214068FFF755BA002388
:105110001A464068FFF740BA024B04225A60024A1E
:105120001A60704710E703201C760D0000231A4612
:105130004068FFF731BA002202214068FFF73CBA0D
:10514000002211464068FFF72FBA0022114640683E
:10515000FFF73ABA00231A4619464068FFF73CBAEF
:1051600000231A4619464068FFF73EBA002281F034
:1051700001014068FFF740BA00224068FFF74CBACF
:10518000002211464068FFF74FBA002211464068DE
:10519000FFF73ABA2DE9F043002495B016460D46C4
:1051A0000746FFF743FD214620220CA8009402F099
:1051B000CCF840230C9321466B460CAA3046FFF7EF
:1051C0009FF80446002844D1024601216868FFF791
:1051D000FBF90221804622466868FFF7F5F9009E38
:1051E00081462146002E34D0002932D17368022B2B
:1051F00002D00A2B09D02AE0B8F1000F27D071693C
:1052000038460431FFF73FFD20E0B9F1000F1ED012
:105210007469112201A802F098F806238DF8143061
:1052200001AD04F108031834186859682A4603C20E
:105230000833A3421546F7D101A906A807ADFFF729
:1052400003FD0FCD3C1D0FC42B6823700121F669AF
:10525000C8E70098FFF74CF8384615B0BDE8F08372
:10526000024B034A1A6000225A60704718E7032075
:1052700050760D0010B5044600F04AF8FFF750FADA
:1052800028B1A4F10B03022B01D8002010BD00F0BF
:1052900079F8FFF74BFE08B1012CF6D9FFF7E2FDD4
:1052A000FFF7DCFD18B1A4F10903012BEDD9232C84
:1052B0008CBF0020012010BD232838B504460D46C0
:1052C0000AD8FF2908D0FFF7D5FF28B12946204684
:1052D000BDE83840FFF724B838BD38B504460D4660
:1052E000FFF726F8FF2810D0062804D84D2323FA0C
:1052F00000F0C30709D42046FFF7BCFF28B12946B8
:105300002046BDE83840FFF71BB838BDFFF720B88E
:1053100038B50B4D296811F001040FD12846FEF76E
:10532000C0FE58B121460748FFF7ECF92846FEF7C2
:10533000BDFE054A0549034800F04AF8014838BD5A
:105340002CE7032020E70320B4E30320F5460D00FB
:1053500070B5044614252A46094E002101F0F5FFD8
:10536000258020253146A5602561284600F040F8BB
:1053700031466060284600F03BF8E060204670BD92
:105380007C760D0030B50E4D296811F0010487B010
:1053900013D12846FEF785FE78B101A8FFF7D8FFA4
:1053A00001AA21460748FFF7AFFD2846FEF77EFE1B
:1053B000054A0649034800F00BF8024807B030BD23
:1053C00034E7032038E70320B4E30320B14E0D0097
:1053D0000B460146184601F09FBF0000024B1868BB
:1053E000BFF35F8F704700BF4CE70320FEF755BE49
:1053F00000F000B810B5002814BF04460124204670
:10540000FFF722F920B9FFF7E9FF08B18047F6E777
:1054100010BD0000184B1A68D1075CBF01221A604A
:10542000164B1A68D2075CBF01221A60144B1A6827
:10543000D0075CBF01221A60124B1A68D1075CBF0B
:1054400001221A60104B1A68D2075CBF01221A6051
:105450000E4B1A68D0075CBF01221A600C4B1A6809
:10546000D1075CBF01221A600A4B1A68D2075CBFE1
:1054700001221A60704700BF6CE7032068E7032031
:1054800064E7032060E703205CE7032058E703207C
:1054900054E7032050E70320244B1A68D0075CBF71
:1054A00001221A60224B1A68D1075CBF01221A60E0
:1054B000204B1A68D2075CBF01221A601E4B1A6883
:1054C000D0075CBF01221A601C4B1A68D1075CBF71
:1054D00001221A601A4B1A68D2075CBF01221A60B7
:1054E000184B1A68D0075CBF01221A60164B1A6865
:1054F000D1075CBF01221A60144B1A68D2075CBF47
:1055000001221A60124B1A68D0075CBF01221A6090
:10551000104B1A68D1075CBF01221A600E4B1A6843
:10552000D2075CBF01221A60704700BF9CE70320CE
:1055300098E7032094E7032090E703208CE70320FB
:1055400088E7032084E7032080E703207CE703202B
:1055500078E7032074E7032070E70320244B1A68E0
:10556000D0075CBF01221A60224B1A68D1075CBFCA
:1055700001221A60204B1A68D2075CBF01221A6010
:105580001E4B1A68D0075CBF01221A601C4B1A68B8
:10559000D1075CBF01221A601A4B1A68D2075CBFA0
:1055A00001221A60184B1A68D0075CBF01221A60EA
:1055B000164B1A68D1075CBF01221A60144B1A6897
:1055C000D2075CBF01221A60124B1A68D0075CBF79
:1055D00001221A60104B1A68D1075CBF01221A60C1
:1055E0000E4B1A68D2075CBF01221A60704700BFD9
:1055F000CCE70320C8E70320C4E70320C0E703206B
:10560000BCE70320B8E70320B4E70320B0E703209A
:10561000ACE70320A8E70320A4E70320A0E70320CA
:10562000184B1A68D1075CBF01221A60164B1A6822
:10563000D2075CBF01221A60144B1A68D0075CBF06
:1056400001221A60124B1A68D1075CBF01221A604E
:10565000104B1A68D2075CBF01221A600E4B1A6801
:10566000D0075CBF01221A600C4B1A68D1075CBFDF
:1056700001221A600A4B1A68D2075CBF01221A6025
:10568000704700BFECE70320E8E70320E4E70320CE
:10569000E0E70320DCE70320D8E70320D4E703207A
:1056A000D0E70320000000002DE9F04F2DED028B24
:1056B000DFF824A38BB057EC106B55EC114B00F0C6
:1056C0008FF99AF90080B0EE408AF0EE608AB8F166
:1056D000FF3F48D022462B462046294601F06EFD6A
:1056E000834600283FD132463B463046394601F0DA
:1056F00065FD8146002840F0908030463946002202
:10570000002301F029FD002836D000220023204686
:10571000294601F021FD8346B8B19FEDA57B01220A
:10572000A94BCDF820900092CDE90267CDE9044560
:105730008DED067B0193B8F1000F5BD09FED9E0BC2
:105740000BB0BDEC028BBDE8F08F45EC104B00F0C8
:10575000A7FF40B1002200232046294601F006FDA4
:10576000002840F0C580B0EE480AF0EE680A0BB0A1
:10577000BDEC028BBDE8F08FB0EE480AF0EE680A8F
:1057800000F08EFF8046002861D04FF000084FF0F7
:10579000000951EC180B42464B4601F0DDFC002895
:1057A000E1D047EC106B00F07BFF0028DBD045EC2C
:1057B000104B00F075FF0028D5D09AF90030824ACE
:1057C000019204210022022BCDE90267CDE90445B4
:1057D000CDE906890091089203D0684600F068FF81
:1057E00070B9FEF741FF2223036009E09FED707B53
:1057F0008DED067B684600F05BFF002800F08E8090
:10580000089B1BB1FEF730FF089B03609DED060B64
:105810000BB0BDEC028BBDE8F08F002200232046C8
:10582000294601F099FC00289DD09FED630B664B43
:10583000CDF820B00122B8F1020FCDE90267CDE921
:1058400004458DED060B8DE80C00D3D18FE747ECB6
:10585000106B00F025FF002897D045EC104B00F0AE
:105860001FFF002891D053EC182B18EE100A194690
:1058700001F0A4FC00287CD103239AF90080009356
:10588000514B0890CDE90267CDE904450193B8F189
:10589000000F48D1DFF844914FF060480022002308
:1058A00030463946CDE9068901F060FC002894D0E5
:1058B0000022464B2046294601F0E6F904460D46F3
:1058C00045EC104B00F000FF204653EC102B29460E
:1058D00001F042FC002849D13D4B9AF900804FF07D
:1058E0006042CDE90623B8F1020F7FF476AF78E786
:1058F000354A9AF90030CDF820B00121CDE9026790
:10590000CDE904458DE80600002B3FF46FAF314927
:105910000020022BCDE906017FF46CAFFEF7A4FE58
:10592000212303606CE79FED267B00220023304695
:1059300039468DED067B01F019FC0028D3D00022FA
:10594000224B2046294601F09FF904460D4645ECBE
:10595000104B00F0B9FE204653EC102B294601F005
:10596000FBFB18B91B4B0022CDE906239AF90080F6
:10597000B9E7154B9AF90090CDF820800122CDE9C6
:105980000267CDE904458DE80C00B9F1000F3FF442
:105990002DAF002200231046194601F09FFAB9F1FD
:1059A000020FCDE90601B9D024E700BFAFF30080B4
:1059B0000000000000000000000000000000F03FB8
:1059C000000000000000F07F80760D000000E03F46
:1059D000FFFFEFC70000F0FF4CE30320FFFFEF479E
:1059E0002DE9F04F51EC110B21F0004858EA00046A
:1059F00093B03CD053EC102B6D4E23F00044B442D6
:105A000010EE10AA1D462BDC894611EE10EA26D0B6
:105A1000B04525DC664EB04577D0002D16461F46B2
:105A2000CDE9000175DB4FF0000BBEF1000F2DD169
:105A30005F4B984500F089805E4B98455ED0B9F188
:105A4000804F00F0DE835C4B99451FD1002D1DDB9C
:105A500047EC106B13B0BDE8F04F00F049BD5AB1F0
:105A600004F1404404F5801454EA0A0306D19FED82
:105A70004A0B13B0BDE8F08FA045CBDD4F4813B003
:105A8000BDE8F04F00F018BE4FF0000B47EC106B74
:105A900000F0FEFD51EC100BBAF1000F1ED0ED0F1F
:105AA00005F1FF3A5BEA0A0363D0454B984540F3A2
:105AB0008D8003F10473984540F33884414B9C4238
:105AC00062DDB9F1000F62DD35A3D3E90023104692
:105AD000194601F0D9F841EC100BCAE724B1354B57
:105AE00025F040429A42DAD1B9F1000FC0F2CB83DF
:105AF000002DC0F2748341EC100BBAE7B9F1000F2E
:105B0000C0F27A8447EC106BB3E7BEF1000F84D08B
:105B1000A6E72D4B984529DCA3F15473984582DD07
:105B20004FEA2853A3F2FF33142B40F37F84C3F1D1
:105B300034032EFA03F202FA03F39E457FF473AFA7
:105B400002F00102C2F1020B6FE704F1404303F5DA
:105B5000801353EA0A038AD01A4B9C4240F3858390
:105B6000B9F1000F13DB9DED000B82E74FF0020B44
:105B70005BE732463B461046194600F0D1FE02462E
:105B80000B4601F0ABF9B6E7B9F1000F9CDB9FEDD6
:105B9000060B6EE7AFF30080000000000000F03F4E
:105BA0009C7500883CE4377E000000000000000087
:105BB0000000F07F0000F03F0000E03F84760D0021
:105BC0000000E041FFFFEF3FFFFF3F43B4F5801FC0
:105BD0004FF0000205DAD64B01F056F86FF03402B0
:105BE0000C462315D34EC4F31304A3F2FF3313441E
:105BF00044F07F55B4421A460D9345F4401540F3E6
:105C00004983CD4B9C4240F32D849FEDB37B8DEDBA
:105C1000087B8DED0E7B9FEDB27B13468DED067BF1
:105C200001330D93A5F580154FF00008DDE906233B
:105C30002946CDE90A0100F073FEDDE90623064698
:105C40000F46DDE90A0100F06DFE02460B4600201A
:105C5000BA4901F043F903460C46CDE91034024637
:105C60000B463046394601F00FF86B1043F00053F5
:105C700003F5002303EB08050A4600230146CDE99E
:105C800002120293DDE902890024CDE904122B46B9
:105C900022464046494600F0F7FF02460B46304692
:105CA000394600F03DFEDDE9062306460F46204654
:105CB000294600F035FE02460B46DDE90A0100F0F8
:105CC0002FFE42464B4600F0DFFF02460B463046B1
:105CD000394600F025FEDDE9102300F0D5FFDDE9AF
:105CE0000445CDE9060122462B462046294600F010
:105CF000CBFF7DA3D3E9002304460D4600F0C4FF8B
:105D00007BA3D3E9002300F00DFE22462B4600F0D2
:105D1000BBFF79A3D3E9002300F004FE22462B4603
:105D200000F0B2FF76A3D3E9002300F0FBFD22468A
:105D30002B4600F0A9FF74A3D3E9002300F0F2FD85
:105D400022462B4600F0A0FF71A3D3E9002300F008
:105D5000E9FD224606460F462B462046294600F01E
:105D600093FF02460B463046394600F08DFF42460F
:105D700004460D464B46DDE9040100F0D3FDDDE9A4
:105D8000062300F081FF22462B4600F0CBFD424661
:105D900006460F464B464046494600F075FF002236
:105DA000674BCDE90A0100F0BDFD32463B4600F0ED
:105DB000B9FD02980D46044622462B464046494608
:105DC00000F062FF0022804689465D4B204629464E
:105DD00000F0A6FDDDE90A2300F0A2FD02460B4615
:105DE0003046394600F09CFDDDE9042300F04CFF0D
:105DF000224606460F462B46DDE9060100F044FF29
:105E000002460B463046394600F08CFD06460F46EA
:105E100002460B4640464946CDE9048900F082FD22
:105E200002983DA3D3E9002304460D4600F02CFF61
:105E3000DDE90423804689462046294600F070FDAE
:105E400002460B463046394600F06AFD34A3D3E9DA
:105E5000002300F019FF34A3D3E9002306460F46C0
:105E60002046294600F010FF02460B4630463946D0
:105E700000F058FDDDE90E2300F054FD06460D98B4
:105E80000F4600F09BFE324604460D463B46404618
:105E9000494600F047FDDDE9082300F043FD2246B6
:105EA0002B4600F03FFD029822462B46CDE9020129
:105EB00000F036FDDDE9082300F032FD42464B4696
:105EC00000F02EFD02460B463046394600F028FD14
:105ED0008046894636E000BF000000000000000058
:105EE000000000000000F03FEF4E454A287ECA3F08
:105EF00065DBC9934A86CD3F01411DA96074D13F3E
:105F00004D268F515555D53FFFAB6FDBB66DDB3F4F
:105F1000033333333333E33F000000E009C7EE3F80
:105F2000FD033ADC09C7EE3FF5015B14E02F3EBEEE
:105F3000000040438E98030079B60B000000F03F4C
:105F4000000008400BF1FF3353EA0A0300F0888198
:105F50009FEDD77B8DED067BDDE900AB53465C46BC
:105F6000CDE9003400230093DDE900455046224688
:105F70002B46594600F0D4FCDDE9022300F084FEF4
:105F8000524606460F465B464046494600F07CFEB8
:105F900002460B463046394600F0C4FC2246804695
:105FA00089462B46DDE90201CDE9048900F06CFE4B
:105FB0000B46024606460F464046494600F0B2FCF4
:105FC000D54B994204460D468A4640F3238101F1A0
:105FD0003F4303F5E003034340F01882B6A3D3E93F
:105FE0000023DDE9040100F09DFC3246804689462D
:105FF0003B462046294600F093FC02460B464046AD
:10600000494601F0D1F8002840F00082A8464FEA46
:1060100028534FF48012A3F2FE3342FA03F35344A1
:10602000C3F30A52BD4DA2F2FF321541C3F3130B65
:106030000020C2F1140423EA05014BF4801BBAF1DD
:10604000000F02460B464BFA04FB30463946B8BFF8
:10605000CBF1000B00F064FC02460B4606460F46EF
:10606000DDE9040100F05EFC4FEA0B5A002494A322
:10607000D3E9002320460D4600F006FE3246804656
:1060800089463B462046294600F04AFC02460B461C
:10609000DDE9040100F044FC8BA3D3E9002300F008
:1060A000F3FD8BA3D3E9002306460F46204629467D
:1060B00000F0EAFD02460B463046394600F032FC5D
:1060C00006460F4602460B464046494600F02AFC6B
:1060D00042464B4604460D4600F022FC02460B4663
:1060E0003046394600F01CFC2246804689462B4645
:1060F0002046294600F0C8FD77A3D3E900230646D1
:106100000F4600F0C1FD76A3D3E9002300F008FCA0
:1061100032463B4600F0B8FD73A3D3E9002300F0FC
:1061200001FC32463B4600F0AFFD71A3D3E90023EA
:1061300000F0F6FB32463B4600F0A6FD6EA3D3E925
:10614000002300F0EFFB32463B4600F09DFD024687
:106150000B462046294600F0E3FB06460F46024662
:106160000B462046294600F08FFD0022CDE90001B4
:106170004FF080433046394600F0D2FB02460B46D2
:10618000DDE9000100F0AAFE424606460F464B46F6
:106190002046294600F078FD42464B4600F0C2FBFF
:1061A00002460B463046394600F0BAFB22462B46E3
:1061B00000F0B6FB02460B460020594900F0B0FB48
:1061C0008A44BAF5801F02460B46C0F25B815146F5
:1061D000DDE9062300F058FD41EC100B49E404F121
:1061E000404404F5801454EA0B0300F03781BBF1FE
:1061F000010F7FF480AC024601F1004343EC102B09
:1062000037E432463B463046394600F03DFD41EC2E
:10621000100B2EE4434B21F00048984540F31581C4
:10622000414B0B4403430CD132463B4600F078FB14
:1062300002460B46DDE9040100F0A2FF00283FF40E
:10624000E6AE2FA3D3E90023DDE9060100F01CFD33
:106250002BA3D3E9002300F017FD41EC100B08E459
:106260009FED297B8DED067B76E6B9F1000FBFF639
:106270008EACDDE9003400EE103A04F1004300EE8C
:10628000903AFFF7F6BB02460B460020244900F087
:1062900025FE2DE49FED1E7B8DED087B8DED0E7BA5
:1062A0009FED037B4FF000088DED067BBEE400BF41
:1062B000000000000000F03FFE822B654715973C70
:1062C00000000000432EE63FEF39FAFE422EE63F83
:1062D000396CA80C615C20BED0A4BE726937663EE2
:1062E000F16BD2C541BDBB3E2CDE25AF6A56113FD6
:1062F00093BDBE166CC1663F3E5555555555C53FBD
:1063000059F3F8C21F6EA501000000000000F0BFA5
:106310000000000000000000FFFF8F40FFFF0F00A3
:106320000000F03FFFCB904000346F3F6C4B9C422D
:106330007FF72AAC6B4B9C423FF7C3AB0022694B03
:1063400000F0EEFA56A3D3E9002304460D4600F010
:106350009BFC55A3D3E90023804689462046294665
:1063600000F092FC0022CDE902015F4B2046294655
:1063700000F08AFC02460B464DA1D1E9000100F075
:10638000CFFA22462B4600F07FFC02460B46002047
:10639000564900F0C5FA22462B4606460F462046CF
:1063A000294600F071FC02460B463046394600F0A3
:1063B0006BFC41A3D3E9002300F066FC02460B46C8
:1063C000DDE9020100F0ACFA02460B4604460D4638
:1063D0004046494600F0A6FA42464B460020CDE929
:1063E000020100F09DFA02460B462046294600F0C5
:1063F00097FA80468946A5E532463B460020394952
:1064000000F06CFD41EC100BFFF733BB2CA3D3E97C
:106410000023DDE9060100F037FC29A3D3E90023BE
:1064200000F032FC41EC100BFFF723BBBEF1000F74
:106430007FF42AABC3F1140348FA03F202FA03F320
:10644000984527D0F346FFF7F7BA284B98453FF712
:10645000DEADDDE900349A469B4607E602460B4670
:10646000FFF789BB9FED187B8DED087B9FED187BB7
:106470008DED0E7B9FED187B4FF480288DED067B14
:10648000FFF7D4BB584643EC102B00F0B1F951ECA8
:10649000100B9DE602F00102C2F1020BFFF7CCBA2D
:1064A000000000604715F73F44DF5DF80BAE543E37
:1064B000555555555555D53FFE822B654715F73F28
:1064C0009C7500883CE4377E0000004003B8E23F42
:1064D00006D0CF43EBFD4C3E000000000000F83F2B
:1064E000FEFFEF3F0000F03F0000D03F0000E03F24
:1064F0002DE9F041654955EC104B0E462940B1425B
:1065000000F09780002D2B4610EE102A74DD2F1519
:106510007FD0A7F2FF37C3F31303F90743F48013C7
:1065200065D403EBD27100260B447F105200B646AF
:1065300016204FF400110EEB01049C424FEAD27575
:106540004FEA420203DC1B1B04EB010E0E44013830
:1065500005EB43034FEA5101EDD1844620244FF06F
:10656000004109E020D003EBD275013C4FEA510114
:106570002B444FEA420220D09E4501EB0C05F1DA94
:10658000002D05EB010C09DBF0469542CEEB030331
:1065900000D9013B521B0844C646E4E7BCF1000F9A
:1065A000F2DB0EF10108F0E795421ED8002D05EB55
:1065B000010C50DB98460023ECE7134304D0421C47
:1065C0004DD000F00103184440087110F30701F1A9
:1065D0007F5101F5001148BF40F0004001EB075327
:1065E000024643EC102BBDE8F0817346BBE75B002D
:1065F00003EBD273520094E725F00041214328D0E9
:10660000ADBB2F46D30A153F5205002BFAD0DD0251
:1066100028D4002100E001465B00DC0201F101000A
:10662000F9D5C0F1200422FA04F423437F1A8240F2
:106630006FE710EE102A2B4610EE100A294600F0E4
:1066400023FB22462B4600F06DF941EC100BBDE810
:10665000F081BDE8F081BCF1000FA2DAAAE70136B3
:106660002046B2E720244FF0FF310020DBE710EE98
:10667000102A2B462046294600F052F902460B46C6
:1066800000F02CFC41EC100BBDE8F0810000F07F25
:1066900053EC102B23F0004343EC102B704700BF4A
:1066A00010EE903A43F0004000F58010C00F7047A4
:1066B00000207047000000009FED010B704700BFF5
:1066C000000000000000F87FF0B553EC102BC3F37E
:1066D0000A56A6F2FF30132883B019464FEAD37446
:1066E00010EE105A2FDC002849DB3F4E064103EA2A
:1066F000060717432CD0760833401D430CD04FF4C7
:106700008023132821EA060643FA00F141EA060134
:106710000CBF4FF000450025344800EBC4042A4666
:10672000D4E9004510462B46224600F0FBF8CDE99F
:10673000000122462B46DDE9000100F0F1F841ECB2
:10674000100B03B0F0BD332806DDB0F5806F42D0EA
:1067500043EC102B03B0F0BDA6F213464FF0FF3010
:10676000F0400242F4D040080242D5D04FF08043BE
:1067700025EA000043FA06F646EA0005CCE723F0D6
:106780000040104310EE107AE2D0C3F31300074329
:10679000784207431548590C3F0B490407F400277A
:1067A00000EBC40047EA0103D0E900671946104630
:1067B0003B46324600F0B6F8CDE900013B46324692
:1067C000DDE9000100F0ACF821F0004343EAC471B8
:1067D00041EC100BBEE710EE100A194600F0A2F8CB
:1067E00041EC100BB6E700BFFFFF0F0088760D00ED
:1067F00053EC102B70B5C3F30A541946054614BB6D
:1068000023F0004111432AD019460022384B394E5B
:1068100010EE100A00F038FAB54202460B461FDBB4
:10682000C1F30A54363C2C4440F2FE7084421FDC13
:10683000002C2DDD21F0FF4121F4E00141EA045359
:1068400043EC102B70BD40F2FF708442EBD110EE90
:10685000100A194600F066F841EC100B70BD70BDCF
:106860001FA3D3E9002300F00FFA41EC100B70BD19
:1068700043EC112B9FED1C0B00F040F81AA3D3E959
:10688000002351EC100B00F0FFF941EC100B70BD30
:1068900014F1350F13DA4CF250318D4243EC112BC9
:1068A000E8DC9FED0F0B00F029F80DA3D3E90023DE
:1068B00051EC100B00F0E8F941EC100B70BD21F029
:1068C000FF4121F4E001363441EA045310461946F1
:1068D0000022094B00F0D8F941EC100B70BD00BF4D
:1068E00059F3F8C21F6EA5019C7500883CE4377E01
:1068F00000005043B03CFFFF0000903C53EC102BD5
:1069000011EE900A23F0004100F0004041EA00033C
:1069100043EC102B704700BF81F0004102E000BF44
:1069200083F0004330B54FEA41044FEA430594EA4F
:10693000050F08BF90EA020F1FBF54EA000C55EA8A
:10694000020C7FEA645C7FEA655C00F0E2804FEA5B
:106950005454D4EB5555B8BF6D420CDD2C4480EA3D
:10696000020281EA030382EA000083EA010180EA6D
:10697000020281EA0303362D88BF30BD11F0004FBB
:106980004FEA01314FF4801C4CEA113102D04042F1
:1069900061EB410113F0004F4FEA03334CEA13332C
:1069A00002D0524263EB430394EA050F00F0A78044
:1069B000A4F10104D5F1200E0DDB02FA0EFC22FA3F
:1069C00005F2801841F1000103FA0EF2801843FA33
:1069D00005F359410EE0A5F120050EF1200E012A24
:1069E00003FA0EFC28BF4CF0020C43FA05F3C01862
:1069F00051EBE37101F0004507D54FF0000EDCF1DB
:106A0000000C7EEB00006EEB0101B1F5801F1BD383
:106A1000B1F5001F0CD349085FEA30004FEA3C0C87
:106A200004F101044FEA445212F5800F80F09A807D
:106A3000BCF1004F08BF5FEA500C50F1000041EB81
:106A4000045141EA050130BD5FEA4C0C404141EB85
:106A5000010111F4801FA4F10104E9D191F0000FAC
:106A600004BF01460020B1FA81F308BF2033A3F12F
:106A70000B03B3F120020CDA0C3208DD02F1140C26
:106A8000C2F10C0201FA0CF021FA02F10CE002F161
:106A90001402D8BFC2F1200C01FA02F120FA0CFC5A
:106AA000DCBF41EA0C019040E41AA2BF01EB0451A3
:106AB000294330BD6FEA04041F3C1CDA0C340EDCA1
:106AC00004F11404C4F1200220FA04F001FA02F3E4
:106AD00040EA030021FA04F345EA030130BDC4F1A2
:106AE0000C04C4F1200220FA02F001FA04F340EA97
:106AF0000300294630BD21FA04F0294630BD94F048
:106B0000000F83F4801306BF81F480110134013D2E
:106B10004EE77FEA645C18BF7FEA655C29D094EA9F
:106B2000050F08BF90EA020F05D054EA000C04BF1D
:106B30001946104630BD91EA030F1EBF0021002008
:106B400030BD5FEA545C05D14000494128BF41F0A7
:106B5000004130BD14F580043CBF01F5801130BD0B
:106B600001F0004545F0FE4141F470014FF0000096
:106B700030BD7FEA645C1ABF194610467FEA655C47
:106B80001CBF0B46024650EA013406BF52EA0335E9
:106B900091EA030F41F4002130BD00BF90F0000FD7
:106BA00004BF0021704730B54FF4806404F1320413
:106BB0004FF000054FF0000150E700BF90F0000FCC
:106BC00004BF0021704730B54FF4806404F13204F3
:106BD00010F0004548BF40424FF000013EE700BFC3
:106BE00042004FEAE2014FEA31014FEA02701FBF53
:106BF00012F07F4393F07F4F81F06051704792F025
:106C0000000F14BF93F07F4F704730B54FF460749E
:106C100001F0004521F0004120E700BF50EA0102E9
:106C200008BF704730B54FF000050AE050EA010296
:106C300008BF704730B511F0004502D5404261EB06
:106C400041014FF4806404F132045FEA915C3FF447
:106C5000DCAE4FF003025FEADC0C18BF03325FEAE0
:106C6000DC0C18BF033202EBDC02C2F1200300FA95
:106C700003FC20FA02F001FA03FE40EA0E0021FABA
:106C800002F11444C1E600BF70B54FF0FF0C4CF4A4
:106C9000E06C1CEA11541DBF1CEA135594EA0C0F5A
:106CA00095EA0C0F00F0DEF82C4481EA030621EA95
:106CB0004C5123EA4C5350EA013518BF52EA0335D0
:106CC00041F4801143F4801338D0A0FB02CE4FF082
:106CD0000005E1FB02E506F00042E0FB03E54FF0B2
:106CE0000006E1FB03569CF0000F18BF4EF0010EAA
:106CF000A4F1FF04B6F5007F64F5407404D25FEAA6
:106D00004E0E6D4146EB060642EAC62141EA555158
:106D10004FEAC52040EA5E504FEACE2EB4F1FD0C9A
:106D200088BFBCF5E06F1ED8BEF1004F08BF5FEA18
:106D3000500E50F1000041EB045170BD06F00046CA
:106D400046EA010140EA020081EA0301B4EB5C0477
:106D5000C2BFD4EB0C0541EA045170BD41F480116F
:106D60004FF0000E013C00F3AB8014F1360FDEBF94
:106D7000002001F0004170BDC4F10004203C35DA70
:106D80000C341BDC04F11404C4F1200500FA05F3F3
:106D900020FA04F001FA05F240EA020001F0004294
:106DA00021F0004110EBD37021FA04F642EB06010A
:106DB0005EEA430E08BF20EAD37070BDC4F10C0434
:106DC000C4F1200500FA04F320FA05F001FA04F2F8
:106DD00040EA020001F0004110EBD37041F10001E4
:106DE0005EEA430E08BF20EAD37070BDC4F12005EF
:106DF00000FA05F24EEA020E20FA04F301FA05F257
:106E000043EA020321FA04F001F0004121FA04F2FE
:106E100020EA020000EBD3705EEA430E08BF20EACE
:106E2000D37070BD94F0000F0FD101F00046400008
:106E300041EB010111F4801F08BF013CF7D041EA8A
:106E4000060195F0000F18BF704703F0004652008E
:106E500043EB030313F4801F08BF013DF7D043EA5F
:106E60000603704794EA0C0F0CEA135518BF95EA15
:106E70000C0F0CD050EA410618BF52EA4306D1D19C
:106E800081EA030101F000414FF0000070BD50EABB
:106E9000410606BF1046194652EA430619D094EA45
:106EA0000C0F02D150EA013613D195EA0C0F05D12F
:106EB00052EA03361CBF104619460AD181EA030183
:106EC00001F0004141F0FE4141F470014FF000003B
:106ED00070BD41F0FE4141F4780170BD70B54FF0D6
:106EE000FF0C4CF4E06C1CEA11541DBF1CEA135556
:106EF00094EA0C0F95EA0C0F00F0A7F8A4EB050438
:106F000081EA030E52EA03354FEA013100F088802E
:106F10004FEA03334FF0805545EA131343EA1263F7
:106F20004FEA022245EA111545EA10654FEA0026AC
:106F30000EF000419D4208BF964244F1FD0404F565
:106F4000407402D25B084FEA3202B61A65EB0305C1
:106F50005B084FEA32024FF480104FF4002CB6EB7E
:106F6000020E75EB030E22BFB61A754640EA0C00FE
:106F70005B084FEA3202B6EB020E75EB030E22BF3E
:106F8000B61A754640EA5C005B084FEA3202B6EB7F
:106F9000020E75EB030E22BFB61A754640EA9C003E
:106FA0005B084FEA3202B6EB020E75EB030E22BF0E
:106FB000B61A754640EADC0055EA060E18D04FEACC
:106FC000051545EA16754FEA06164FEAC30343EA6C
:106FD00052734FEAC2025FEA1C1CC0D111F4801F39
:106FE0000BD141EA00014FF000004FF0004CB6E732
:106FF00011F4801F04BF01430020B4F1FD0C88BFD1
:10700000BCF5E06F3FF6AFAEB5EB030C04BFB6EBDB
:10701000020C5FEA500C50F1000041EB045170BDCE
:107020000EF0004E4EEA113114EB5C04C2BFD4EBFB
:107030000C0541EA045170BD41F480114FF0000E7F
:10704000013C90E645EA060E8DE60CEA135594EAFB
:107050000C0F08BF95EA0C0F3FF43BAF94EA0C0FFE
:107060000AD150EA01347FF434AF95EA0C0F7FF473
:1070700025AF104619462CE795EA0C0F06D152EAC7
:1070800003353FF4FDAE1046194622E750EA4106AB
:1070900018BF52EA43067FF4C5AE50EA41047FF4BC
:1070A0000DAF52EA43057FF4EBAE12E74FF0FF3C21
:1070B00006E000BF4FF0010C02E000BF4FF0010CF2
:1070C0004DF804CD4FEA410C7FEA6C5C4FEA430C6B
:1070D00018BF7FEA6C5C1BD001B050EA410C0CBFBA
:1070E00052EA430C91EA030F02BF90EA020F00201C
:1070F000704710F1000F91EA030F58BF994208BF83
:1071000090422CBFD8176FEAE37040F0010070473F
:107110004FEA410C7FEA6C5C02D150EA013C07D196
:107120004FEA430C7FEA6C5CD6D152EA033CD3D0E1
:107130005DF8040B704700BF8446104662468C46DB
:107140001946634600E000BF01B5FFF7B7FF00280E
:1071500048BF10F1000F01BD4DF808EDFFF7F4FF37
:107160000CBF012000205DF808FB00BF4DF808EDC2
:10717000FFF7EAFF34BF012000205DF808FB00BFE5
:107180004DF808EDFFF7E0FF94BF012000205DF807
:1071900008FB00BF4DF808EDFFF7CEFF94BF0120BC
:1071A00000205DF808FB00BF4DF808EDFFF7C4FFB5
:1071B00034BF012000205DF808FB00BF4FEA410CFE
:1071C0007FEA6C5C02D150EA013C0AD14FEA430CE1
:1071D0007FEA6C5C02D152EA033C02D14FF000001E
:1071E00070474FF0010070474FEA410212F500125C
:1071F00015D211D56FF47873B3EB625212D94FEAFE
:10720000C12343F0004343EA505311F0004F23FAE7
:1072100002F018BF404270474FF00000704750EA3C
:10722000013005D111F0004008BF6FF000407047F9
:107230004FF00000704700BF4A0011D212F5001253
:1072400011D20DD56FF47873B3EB62520ED44FEABE
:10725000C12343F0004343EA505323FA02F070473E
:107260004FF00000704750EA013002D14FF0FF307C
:1072700070474FF0000070474FEA4102B2F1E0431F
:1072800024BFB3F5001CDCF1FE5C0DD901F0004C0D
:107290004FEAC0024CEA5070B2F1004F40EB83005D
:1072A00008BF20F00100704711F0804F21D113F189
:1072B0003872BCBF01F00040704741F480114FEAC2
:1072C0005252C2F11802C2F1200C10FA0CF320FA4B
:1072D00002F018BF40F001004FEAC1234FEAD32368
:1072E00003FA0CFC40EA0C0023FA02F34FEA4303D2
:1072F000CCE77FEA625307D150EA01331EBF4FF05B
:10730000FE4040F44000704701F0004040F0FE4075
:1073100040F40000704700BF10B5054C13462CB177
:107320000A4601460220AFF3008010BD204610BD82
:107330000000000010B5431E0A44914204D011F829
:10734000014B03F8014FF8E710BD02440346934296
:1073500002D003F8011BFAE77047000038B5124B62
:107360001C68A36B0546D3B91820FDF76DF943F2ED
:107370000E33A06303804AF6CD33438041F23423B9
:1073800083804EF26D63C3804DF6EC630381052369
:1073900043810B23838101220023C0E90423A36BD3
:1073A00000221D615A6138BDB0E30320034613F883
:1073B000012B002AFBD1181A0138704721400D001B
:1073C0005D400D0089400D008D400D000000000063
:1073D0002C0076616375756D206F6E007661637544
:1073E000756D206F66660000000000000000000060
:1073F000D7460D00CD460D00C3460D00B9460D0021
:10740000AD460D00A1460D0095460D008D460D00C0
:1074100083460D0079460D0095510D0000000000D7
:1074200000000000F5460D00F7460D006E616E008D
:107430006F7666002E00696E6600626175640053A7
:10744000657269616C0053657269616C31007479B1
:10745000706500706172616D00636D640069640045
:10746000686E64007374726D0066696C74006C768B
:107470006C0061646448616E646C65720072656D75
:107480006F766548616E646C657200656E756D48F7
:10749000616E646C657273004A534F4E537472652B
:1074A000616D4C6F6748616E646C657200617070ED
:1074B00000253031307520005D20002564002C202F
:1074C0000028293A2000205B00636F6465203D207E
:1074D0000025690064657461696C73203D20000DAE
:1074E0000A006C6E00666E00636F6465006465740C
:1074F00061696C006E6F6E6500747261636500692E
:107500006E666F007761726E006572726F720070E6
:10751000616E696300616C6C005A00252B30336426
:107520003A253032750025592D256D2D25645425B9
:10753000483A254D3A2553257A0061736374696D85
:10754000650000000000000000000000C94B0D00B5
:10755000B94B0D00BB4B0D00000000000000000007
:10756000A14C0D00F14C0D00FF4C0D00B1470D007A
:10757000DD4C0D00A34C0D00B94C0D00EB4C0D0083
:10758000CF4C0D009D4C0D000000000000000000DD
:10759000AD4D0D00FD4D0D000B4E0D00B1470D0022
:1075A000C14D0D00E34D0D00CF4D0D00F74D0D0009
:1075B000AF4D0D00B34D0D000000000000000000B5
:1075C000B14E0D00FB4E0D00D34E0D00B34E0D001D
:1075D000DB4E0D00E34E0D00EB4E0D00F34E0D00A3
:1075E0000000000000000000934F0D00894F0D00C7
:1075F0007F4F0D00754F0D00694F0D005D4F0D0061
:10760000514F0D00494F0D003F4F0D00354F0D00FC
:1076100095510D0000000000000000000F510D000A
:1076200005510D00FB500D00B1500D00EF500D0045
:10763000E3500D00D7500D00CF500D00C5500D0088
:10764000BB500D0095510D0000000000000000002F
:107650002D510D0037510D0041510D004B510D00C2
:1076600055510D0061510D006D510D0079510D0006
:1076700081510D008B510D0095510D00000000004F
:10768000706F770000000000000000000000304331
:1076900000000000000030C30000000000000000F7
:1076A00000000000000000000000000000000000DA
:1076B00000000000000000000000000000000000CA
:1076C00000000000000000000000000000000000BA
:1076D00000000000000000000000000000000000AA
:1076E000000000000000000000000000000000009A
:1076F000000000000000000043000000E9420D000F
:10770000ED420D00E1460D0045470D0089470D0093
:10771000494A0D00594A0D008D4A0D0061500D0077
:1077200019510D0061520D0015540D0099540D00B2
:107730005D550D0021560D00000000000000000006
:047740000000000045
:10774400080000008813000013000000040000007B
:107754003A750D00010000000000000098760D004D
:10776400B8760D00D8760D0000000000000000007F
:107774000000000000000000F8760D00000000008A
:1077840000000000000000000000000000000000F5
:1077940000000000000000000000000000000000E5
:1077A40000000000000000000000000000000000D5
:0C77B400000000000000000050E3032073
:1077C000FFFFFFFF00000102030405060708090A86
:1077D0000B0C0D0E0F101112131415161718191A81
:0877E0001B1C1D1E1F202800C8
:0477E8007856341289
:04000003D0004020C9
:00000001FF
