:02000002D0002C
:1040000000400D00A8570D00000006000C0005013F
:084010000401DE0500000000C0
:04401800D0530D0074
:10401C0009480A49884208B505D0094A824202D0AB
:10402C00121A01F08BF90748074A0021121A01F005
:10403C0090F9014808BD00BF5CE3032014570D0044
:10404C00C8E30320C8E30320F0E7032070B500F0B9
:10405C00AFFB074C074BE41AA40800251E46A542EB
:10406C0004D056F8253098470135F8E770BD00BFED
:10407C000C570D00D4560D0000F014B808B500F024
:10408C0021F8BDE8084000F055BB00F009BA00F07B
:10409C0007BA0078B0FA80F040097047012303702A
:1040AC007047000008B500F083FC4FF4165100F087
:1040BC0073FC034B01211888BDE8084000F024BFB5
:1040CC005CE3032038B5002000F048FF044600F004
:1040DC006FFC002C054604DA2D2100F0ABFA61428E
:1040EC0000E021460A22284600F0B3FA284600F0E8
:1040FC00A4FA642000F0E0FA054BB4F5967F18881A
:10410C00CCBF01210021BDE8384000F00EBF00BF3C
:10411C005CE3032000F010B808B5024B1B689B68E9
:10412C00019308BD6802030008B5024B1B68DB68ED
:10413C00019308BD6802030008B5024B1B681B689D
:10414C00019308BD2C02030008B5024B1B685B6889
:10415C00019308BD2C02030008B5024B1B689B6839
:10416C00019308BD2C02030008B5024B1B68DB68E9
:10417C00019308BD2C02030008B5024B1B681B6998
:10418C00019308BD2C02030008B5024B1B681B6B86
:10419C00019308BD2C02030008B5024B1B68DB69B8
:1041AC00019308BD3002030008B5024B1B681B6A63
:1041BC00019308BD3002030008B5024B1B685B6815
:1041CC00019308BD1802030008B5024B1B685B691C
:1041DC00019308BD1802030008B5024B1B689B68CD
:1041EC00019308BD4802030008B5024B1B681B690C
:1041FC00019308BD4802030008B5024B1B685B69BC
:10420C00019308BD4802030008B5024B1B685B6CA8
:10421C00019308BD4802030008B5024B1B689B6C58
:10422C00019308BD4802030008B5024B1B685B698B
:10423C00019308BD6402030008B5024B1B681B68A0
:10424C00019308BD3C02030008B5024B1B68DB68F8
:10425C00019308BD3C02030008B5024B1B681B69A7
:10426C00019308BD3C02030008B5024B1B685B6957
:10427C00019308BD3C02030008B5024B1B689B6907
:10428C00019308BD3C02030008B5024B1B68DB69B7
:10429C00019308BD3C02030008B5024B1B681B6A66
:1042AC00019308BD3C02030008B5024B1B689B6AD6
:1042BC00019308BD3C02030008B5024B1B681B6A46
:1042CC00019308BD2802030008B5024B1B685B6A0A
:1042DC00019308BD2802030008B5024B1B689B6ABA
:1042EC00019308BD2802030008B5024B1B68DB6A6A
:1042FC00019308BD2802030008B5024B1B681B6B19
:10430C00019308BD2802030008B5024B1B685B6BC8
:10431C00019308BD2802030008B5024B1B681B6CF7
:10432C00019308BD2802030008B5024B1B681B68EB
:10433C00019308BD4C02030008B5024B1B685B6877
:10434C00019308BD4C02030008B5024B1B681B69A6
:10435C00019308BD4C02030008B5024B1B685B6956
:10436C00019308BD4C02030008B5024B1B689B6906
:10437C00019308BD4C02030008B5024B1B68DB69B6
:10438C00019308BD4C02030008B5024B1B681B6A65
:10439C00019308BD4C02030008B5024B1B685B6817
:1043AC00019308BD2002030008B5024B1B685B6932
:1043BC00019308BD2002030008B5034B1B68D3F81A
:1043CC008830019308BD00002002030008B5034BA0
:1043DC001B68D3F89430019308BD00002002030041
:1043EC0008B5024B1B685B68019308BD40020300D3
:1043FC0008B5024B1B689B68019308BD4002030083
:10440C0008B5024B1B68DB68019308BD4002030032
:10441C0008B5024B1B681B69019308BD40020300E1
:10442C0008B5024B1B685B69019308BD4002030091
:10443C0008B5024B1B689B69019308BD4002030041
:10444C0008B5024B1B68DB69019308BD40020300F1
:10445C0008B5024B1B681B6A019308BD40020300A0
:10446C0008B5024B1B681B6B019308BD400203008F
:10447C0008B5024B1B685B6B019308BD400203003F
:10448C0008B5024B1B68DB6B019308BD44020300AB
:10449C0008B5024B1B681B68019308BD1C02030086
:1044AC0008B5024B1B685B68019308BD1C02030036
:1044BC00002211464068FFF7CBBF0022114640682E
:1044CC00FFF7D6BF00224068FFF7CABF002281F079
:1044DC0001014068FFF7B4BF00231A461946406833
:1044EC00FFF7A6BF00231A4619464068FFF798BF8E
:1044FC00002211464068FFF78BBF0022114640682E
:10450C00FFF776BF002202214068FFF779BF002336
:10451C001A464068FFF764BF024B03225A60024AF6
:10452C001A607047CCE30320EC530D00704710B5B4
:10453C000C21044600F098FD204610BD10B5054B2B
:10454C000360044601710846FFF726FE0023A360B2
:10455C00204610BD20540D000079FFF725BE10B584
:10456C000446006818B1FFF79BFF0023236010BDC1
:10457C0010B50446FFF7F3FF204610BD10B5094CEB
:10458C0000204FF6FF732060A080A0712081638112
:10459C00FFF702FF2046044A0449BDE8104000F032
:1045AC0055BD00BFD4E30320C8E303207D450D00B7
:1045BC0010B50446006808B1FFF72EFE204610BD6A
:1045CC0010B5064C002320462360FFF71DFE204645
:1045DC00034A0449BDE8104000F038BDE0E3032075
:1045EC00C8E30320BD450D00F8B506460D468F18EF
:1045FC000024BD420CD0336815F8011B9B68304673
:10460C009847002801DB0444F3E7002C08BF04465C
:10461C002046F8BD70B505460C46084649B100F079
:10462C00C9FE2B68024621462846DB68BDE870406F
:10463C00184770BD03689B68184738B50D210546AF
:10464C00FFF7F8FF0A2104462846FFF7F3FF204442
:10465C0038BD30B58BB00B4600218DF82410012AE3
:10466C0098BF0A220DF12304B3FBF2F505FB1233BC
:10467C0003F0FF03092B94BF30333733DBB22146F1
:10468C0004F801392B46002DEED1FFF7C3FF0BB018
:10469C0030BD0000014B024A1A607047E4E303206E
:1046AC009B540D00024B1A68024B1A60704700BFF6
:1046BC0060E30320E8E303200021FFF775BE10B58B
:1046CC008368044613B1032201469847204610BD67
:1046DC0010B50446FFF7F3FF204610BD0348044A0B
:1046EC0004490023836000F0B1BC00BFECE303205D
:1046FC00C8E30320DD460D0008B50C4B33B100F0C8
:10470C0057F903681B699847002809DC084B63B10B
:10471C0000F0D0F903681B699847002803DC08BD3A
:10472C00AFF30080F2E7AFF3008008BD000000009B
:10473C000000000008B5FFF7DFFFFFF745FD014B58
:10474C00186008BD30E703200248034A0349121AD7
:10475C0000F0F4BD00F4032004F4032010570D0006
:10476C0007B5002300931A466FF07701FFF72EFE72
:10477C0003B05DF804FB000007B543880A2B08D092
:10478C00502B09D1094B1B683BB103B05DF804EB0E
:10479C001847FFF7E5FF06E0002300931A466FF079
:1047AC007701FFF713FE03B05DF804FBFCE3032075
:1047BC0038B5104C104D2368AB42104B0CBF012286
:1047CC0000221A7002D0FFF7BFFF2560FFF7F4FC40
:1047DC00044600F0C7FD0A4B13B12046AFF300802E
:1047EC0000210748FFF74CFE00210648BDE8384081
:1047FC00FFF7E2BD00F403201E1C279A00E40320FF
:10480C000000000085470D00704710B518210446C4
:10481C0000F02AFC204610BDF0B5037D062B8DB0B0
:10482C000E4600F104074FF0000402D000F1080519
:10483C0018E00CAD394605F8304D2F232A460A20D6
:10484C00FFF7F2FC284600F0B5FD33680246DB6842
:10485C002946304698470FE024B12E213046FFF709
:10486C00E9FE044415F8011D0A223046FFF7F1FE5B
:10487C00BD420444F0D120460DB0F0BD10B5054B3F
:10488C000446112240F8043B002100F062FD204652
:10489C0010BD00BF3C550D000346074A10B543F848
:1048AC00042B01F1100251F8044B43F8044B9142D4
:1048BC00F9D10A781A7010BD3C550D0010B59DF851
:1048CC00084044EA032343EA024242EA016104231A
:1048DC004160037510BD37B50D788B784A78C9786F
:1048EC0000912946FFF7EAFF03B030BD41747047D1
:1048FC00704708B50021007CFFF736FD30EA200038
:10490C0028BF4FF0FF3008BD08B50121007CFFF730
:10491C002BFD30EA200028BF4FF0FF3008BD08B552
:10492C00007CFFF719FD20EAE07008BD08B5007C9B
:10493C00FFF70AFD20EAE07008BD007CFFF724BDFC
:10494C0010B51421044600F08FFB204610BD38B57D
:10495C000446007C0D46FFF7FFFC002801DC607C60
:10496C0028B12946207CFFF707FD20EAE07038BD0E
:10497C0010B50446002363604FF47A73A360054BB3
:10498C00236001230846217463741146FFF7CCFCA5
:10499C00204610BD50550D000022007CFFF7CCBC0A
:1049AC0010B514220446002100F0D3FC204610BDA3
:1049BC0030B50E4D87B001A8FFF7F2FF296811F052
:1049CC00010410D12846FFF764FB60B101AA21460F
:1049DC000748FFF7CDFF2846FFF760FB054A06495D
:1049EC00034800F033FB024807B030BD04E4032059
:1049FC0008E40320C8E30320FD480D007047417410
:104A0C00704708B5007CFFF74FFC20EAE07008BD4A
:104A1C0008B5007CFFF720FC20EAE07008BD08B563
:104A2C00007CFFF729FC30EA200028BF4FF0FF3054
:104A3C0008BD08B5007CFFF717FC30EA200028BF42
:104A4C004FF0FF3008BD007CFFF71EBC10B51421E1
:104A5C00044600F009FB204610BD70B5457C0446A9
:104A6C000E4625B9007CFFF71FFC002805DD3146FA
:104A7C00207CBDE87040FFF7E7BB284670BD000006
:104A8C0010B5044608461146002262604FF47A7253
:104A9C00A260054A22600122207462741A46FFF754
:104AAC00CBFB204610BD00BF80550D00007CFFF7EE
:104ABC00F3BB000038B50C4D296811F0010411D17D
:104ACC002846FFF7E6FA68B1084A094B094821461F
:104ADC00FFF7D6FF2846FFF7E1FA074A07490548D2
:104AEC0000F0B4FA034838BDB4E40320B8E4032062
:104AFC0030E403201CE40320C8E30320094A0D0022
:104B0C007047F8B5064615460C468F18BC4206D0C1
:104B1C00336814F8011B9B6830469847F6E7284623
:104B2C00F8BD0022007CFFF7C7BB0021007CFFF71B
:104B3C00CBBB0021007CFFF7CFBB0021007CFFF733
:104B4C00D3BB0021007CFFF7D7BB10B51421044662
:104B5C0000F08AFA204610BD10B5044600236360AD
:104B6C004FF47A73A360044B2174084623601146FA
:104B7C00FFF7D2FB204610BDB0550D000021007C84
:104B8C00FFF7C2BB002211464068FFF761BC002250
:104B9C0011464068FFF76CBC00224068FFF760BC10
:104BAC00002281F001014068FFF74ABC00231A463D
:104BBC0001214068FFF73CBC00231A4619464068A7
:104BCC00FFF72EBC002211464068FFF721BC0022E3
:104BDC0011464068FFF70CBC002202214068FFF729
:104BEC000FBC00231A464068FFF7FABB38B50546E0
:104BFC0088B104684CB1A3681BB10322214620463E
:104C0C0098471021204600F02FFA28461421BDE8C1
:104C1C00384000F029BA38BD10B103685B681847FA
:104C2C00704710B503680446BBB15868FFF7D4FA57
:104C3C0078B923685A7C12B95868FFF7D5FA2368FB
:104C4C005868FFF7D9FA20680023236028B1FFF7D2
:104C5C00CDFF206808B1FFF7C9FF204610BD38B55D
:104C6C000446D0F8C40108B1FFF711FAD4F8C0011A
:104C7C0008B1FFF7D1FAD4F8BC5135B12846FFF78B
:104C8C00D0FF0421284600F0EFF9206808B1FFF7A7
:104C9C00C3FF204638BD000010B5044B044640F855
:104CAC00083BFFF7DCFF204610BD00BFD8550D00B8
:104CBC0038B50E4C0E4B23600025022304F5E4702E
:104CCC006360A560C4F8C451C4F8C851FFF79CFADE
:104CDC00084BC4F8CC5184F8D05123602046064AC6
:104CEC000649BDE8384000F0B1B900BF3CE50320EF
:104CFC0040560D00D8550D00C8E30320A54C0D00FF
:104D0C00002211464068FFF783BB00221146406821
:104D1C00FFF79EBB002211464068FFF7A9BB00229B
:104D2C004068FFF79DBB002281F001014068FFF74E
:104D3C0087BB00231A4619464068FFF779BB00234E
:104D4C001A4619464068FFF76BBB002211464068B3
:104D5C00FFF74EBB002202214068FFF751BB002336
:104D6C001A464068FFF73CBB024B04225A60024AC9
:104D7C001A60704710E703200C560D0000231A46EA
:104D8C004068FFF72DBB002202214068FFF738BBBB
:104D9C00002211464068FFF72BBB002211464068E9
:104DAC00FFF736BB00231A4619464068FFF738BB9D
:104DBC0000231A4619464068FFF73ABB002281F0DF
:104DCC0001014068FFF73CBB00224068FFF748BB7D
:104DDC00002211464068FFF74BBB00221146406889
:104DEC00FFF736BB2DE9F043002495B016460D466F
:104DFC000746FFF743FD214620220CA8009400F043
:104E0C00A8FA40230C9321466B460CAA3046FFF7B8
:104E1C008BF90446002844D1024601216868FFF74B
:104E2C00F7FA0221804622466868FFF7F1FA009EE5
:104E3C0081462146002E34D0002932D17368022BD2
:104E4C0002D00A2B09D02AE0B8F1000F27D07169E3
:104E5C0038460431FFF73FFD20E0B9F1000F1ED0BA
:104E6C007469112201A800F074FA06238DF814302D
:104E7C0001AD04F108031834186859682A4603C2B6
:104E8C000833A3421546F7D101A906A807ADFFF7D1
:104E9C0003FD0FCD3C1D0FC42B6823700121F66957
:104EAC00C8E70098FFF738F9384615B0BDE8F0832D
:104EBC00024B034A1A6000225A60704718E703201D
:104ECC0040560D0010B5044600F060F8FFF744FBA7
:104EDC0028B1A4F10B03022B01D8002010BD00F067
:104EEC008FF8FFF74BFE08B1012CF6D9FFF7E2FD66
:104EFC00FFF7DCFD18B1A4F10903012BEDD9232C2C
:104F0C008CBF0020012010BD232838B504460D4667
:104F1C000AD8FF2908D0FFF7D5FF28B1294620462B
:104F2C00BDE83840FFF718B938BD38B504460D4612
:104F3C00FFF71AF9FF2810D0062804D84D2323FABE
:104F4C0000F0C30709D42046FFF7BCFF28B129465F
:104F5C002046BDE83840FFF70FB938BD0D2810B515
:104F6C0004469CBF0E34A4B22046FFF7ABFF50B1F1
:104F7C0003212046FFF7E8F8032804D12046BDE8BA
:104F8C001040FFF701B9002010BD000038B50B4DE3
:104F9C00296811F001040FD12846FFF77AF858B1AF
:104FAC0021460748FFF7CAFA2846FFF777F8054A63
:104FBC000549034800F04AF8014838BD2CE70320A6
:104FCC0020E70320C8E3032039450D0070B50446E3
:104FDC0014252A46094E002100F0BBF92580202516
:104FEC003146A5602561284600F040F831466060E6
:104FFC00284600F03BF8E060204670BD6C560D0072
:10500C0030B50E4D296811F0010487B013D1284634
:10501C00FFF73FF878B101A8FFF7D8FF01AA2146A6
:10502C000748FFF799FD2846FFF738F8054A064967
:10503C00034800F00BF8024807B030BD34E70320FA
:10504C0038E70320C8E303200D4B0D000B46014647
:10505C00184600F065B90000024B1868BFF35F8F6B
:10506C00704700BF4CE70320FFF70FB800F000B803
:10507C0010B5002814BF044601242046FFF708FA97
:10508C0020B9FFF7E9FF08B18047F6E710BD000033
:10509C00184B1A68D1075CBF01221A60164B1A68AC
:1050AC00D2075CBF01221A60144B1A68D0075CBF90
:1050BC0001221A60124B1A68D1075CBF01221A60D8
:1050CC00104B1A68D2075CBF01221A600E4B1A688B
:1050DC00D0075CBF01221A600C4B1A68D1075CBF69
:1050EC0001221A600A4B1A68D2075CBF01221A60AF
:1050FC00704700BF6CE7032068E7032064E70320D8
:10510C0060E703205CE7032058E7032054E7032003
:10511C0050E70320244B1A68D0075CBF01221A60A9
:10512C00224B1A68D1075CBF01221A60204B1A6807
:10513C00D2075CBF01221A601E4B1A68D0075CBFF5
:10514C0001221A601C4B1A68D1075CBF01221A603D
:10515C001A4B1A68D2075CBF01221A60184B1A68E6
:10516C00D0075CBF01221A60164B1A68D1075CBFCE
:10517C0001221A60144B1A68D2075CBF01221A6014
:10518C00124B1A68D0075CBF01221A60104B1A68C8
:10519C00D1075CBF01221A600E4B1A68D2075CBFA4
:1051AC0001221A60704700BF9CE7032098E7032098
:1051BC0094E7032090E703208CE7032088E7032083
:1051CC0084E7032080E703207CE7032078E70320B3
:1051DC0074E7032070E70320244B1A68D0075CBFE8
:1051EC0001221A60224B1A68D1075CBF01221A6097
:1051FC00204B1A68D2075CBF01221A601E4B1A683A
:10520C00D0075CBF01221A601C4B1A68D1075CBF27
:10521C0001221A601A4B1A68D2075CBF01221A606D
:10522C00184B1A68D0075CBF01221A60164B1A681B
:10523C00D1075CBF01221A60144B1A68D2075CBFFD
:10524C0001221A60124B1A68D0075CBF01221A6047
:10525C00104B1A68D1075CBF01221A600E4B1A68FA
:10526C00D2075CBF01221A60704700BFCCE7032055
:10527C00C8E70320C4E70320C0E70320BCE70320F2
:10528C00B8E70320B4E70320B0E70320ACE7032022
:10529C00A8E70320A4E70320A0E70320184B1A6813
:1052AC00D1075CBF01221A60164B1A68D2075CBF8B
:1052BC0001221A60144B1A68D0075CBF01221A60D5
:1052CC00124B1A68D1075CBF01221A60104B1A6886
:1052DC00D2075CBF01221A600E4B1A68D0075CBF64
:1052EC0001221A600C4B1A68D1075CBF01221A60AC
:1052FC000A4B1A68D2075CBF01221A60704700BFC4
:10530C00ECE70320E8E70320E4E70320E0E70320D1
:10531C00DCE70320D8E70320D4E70320D0E7032001
:10532C0010B5054C13462CB10A4601460220AFF3CA
:10533C00008010BD204610BD0000000010B5431EBB
:10534C000A44914204D011F8014B03F8014FF8E7DD
:10535C0010BD02440346934202D003F8011BFAE746
:10536C007047000038B5124B1C68A36B0546D3B9C7
:10537C001820FFF78DF843F20E33A06303804AF632
:10538C00CD33438041F2342383804EF26D63C3806E
:10539C004DF6EC630381052343810B2383810122AA
:1053AC000023C0E90423A36B00221D615A6138BDA0
:1053BC00C4E30320034613F8012B002AFBD1181A6F
:1053CC00013870471D400D0059400D0085400D00FF
:1053DC0089400D00000000000000000000000000EB
:1053EC001B450D0011450D0007450D00FD440D003A
:1053FC00F1440D00E5440D00D9440D00D1440D00DD
:10540C00C7440D00BD440D00F14D0D00000000001F
:10541C000000000039450D003B450D0062617564CC
:10542C000053657269616C0053657269616C31007F
:10543C007479706500706172616D00636D640069F0
:10544C006400686E64007374726D0066696C74003D
:10545C006C766C0061646448616E646C6572007299
:10546C00656D6F766548616E646C657200656E750E
:10547C006D48616E646C657273004A534F4E537481
:10548C007265616D4C6F6748616E646C657200612A
:10549C00707000253031307520005D2000256400CF
:1054AC002C200028293A2000205B00636F646520C3
:1054BC003D200025690064657461696C73203D2092
:1054CC00000D0A0066006C6E00666E00636F64650A
:1054DC000064657461696C006E6F6E650074726156
:1054EC00636500696E666F007761726E006572723B
:1054FC006F720070616E696300616C6C005A0025FC
:10550C002B3033643A253032750025592D256D2DFD
:10551C0025645425483A254D3A2553257A00617364
:10552C006374696D6500000000000000000000005D
:10553C0025480D0015480D0017480D00000000000F
:10554C0000000000FD480D004D490D005B490D00A9
:10555C00F5450D0039490D00FF480D0015490D00AA
:10556C0047490D002B490D00F9480D0000000000C3
:10557C0000000000094A0D00594A0D00674A0D0051
:10558C00F5450D001D4A0D003F4A0D002B4A0D003C
:10559C00534A0D000B4A0D000F4A0D00000000008D
:1055AC00000000000D4B0D00574B0D002F4B0D0054
:1055BC000F4B0D00374B0D003F4B0D00474B0D00B3
:1055CC004F4B0D000000000000000000EF4B0D00E1
:1055DC00E54B0D00DB4B0D00D14B0D00C54B0D0009
:1055EC00B94B0D00AD4B0D00A54B0D009B4B0D00A9
:1055FC00914B0D00F14D0D0000000000000000006B
:10560C006B4D0D00614D0D00574D0D000D4D0D00F6
:10561C004B4D0D003F4D0D00334D0D002B4D0D002E
:10562C00214D0D00174D0D00F14D0D000000000037
:10563C0000000000894D0D00934D0D009D4D0D0097
:10564C00A74D0D00B14D0D00BD4D0D00C94D0D0008
:10565C00D54D0D00DD4D0D00E74D0D00F14D0D004C
:10566C00000000000000000000000000000000002E
:10567C00000000000000000000000000000000001E
:10568C00000000000000000000000000000000000E
:10569C0000000000000000000000000000000000FE
:1056AC0000000000000000000000000000000000EE
:1056BC0000000000000000000000000000000000DE
:1056CC00000000004300000021410D0025450D00A5
:1056DC0089450D00CD450D00A1460D00B1460D00CC
:1056EC00E9460D00BD4C0D00754D0D00BD4E0D0075
:1056FC009D500D0021510D00E5510D00A9520D00DA
:04570C000000000099
:045710000000000095
:10571400070000002A550D000000000070560D001F
:1057240090560D00B0560D0000000000000000006F
:105734000000000000000000D0560D000000000032
:105744000000000000000000000000000000000055
:105754000000000000000000000000000000000045
:105764000000000000000000000000000000000035
:0C577400000000000000000064E30320BF
:10578000FFFFFFFF00000102030405060708090AE6
:105790000B0C0D0E0F101112131415161718191AE1
:0857A0001B1C1D1E1F20280028
:0457A80078563412E9
:04000003D000401CCD
:00000001FF
