:02000002D0002C
:1040000000400D00F8560D00000006000C000501F0
:084010000401E70500000000B7
:0440180024530D0020
:10401C0009480A49884208B505D0094A824202D0AB
:10402C00121A01F035F90748074A0021121A01F05B
:10403C003AF9014808BD00BF58E3032064560D004F
:10404C00C4E30320C4E30320F0E7032070B500F0C1
:10405C0095FB074C074BE41AA40800251E46A54205
:10406C0004D056F8253098470135F8E770BD00BFED
:10407C0060560D0028560D0000F014B808B500F07D
:10408C0021F8BDE8084000F03BBB00F0F1B900F0AE
:10409C00EFB90078B0FA80F0400970470123037043
:1040AC007047000008B500F069FC4FF4E13100F0F6
:1040BC0059FC034B00211888BDE8084000F01EBFD6
:1040CC0058E3032038B500F067F8124B186000F085
:1040DC0055FC114900F099FA00F050FC0F4B1C688C
:1040EC00002C054604DA2D2100F080FA614200E034
:1040FC0021460A22284600F092FA284600F079FA66
:10410C0000F03CFC064900F080FA0120BDE8384084
:10411C0000F0B8BAC8E3032038530D00CCE30320F9
:10412C0044530D0000F010B808B5024B1B689B6897
:10413C00019308BD6802030008B5024B1B68DB68DD
:10414C00019308BD6802030008B5024B1B681B688D
:10415C00019308BD2C02030008B5024B1B689B6839
:10416C00019308BD2C02030008B5024B1B68DB69E8
:10417C00019308BD3002030008B5024B1B681B6A93
:10418C00019308BD3002030008B5024B1B685B6845
:10419C00019308BD1802030008B5024B1B685B694C
:1041AC00019308BD1802030008B5024B1B689B68FD
:1041BC00019308BD4802030008B5024B1B681B693C
:1041CC00019308BD4802030008B5024B1B685B69EC
:1041DC00019308BD4802030008B5024B1B685B6CD9
:1041EC00019308BD4802030008B5024B1B689B6C89
:1041FC00019308BD4802030008B5024B1B685B69BC
:10420C00019308BD6402030008B5024B1B681B68D0
:10421C00019308BD3C02030008B5024B1B68DB6828
:10422C00019308BD3C02030008B5024B1B681B69D7
:10423C00019308BD3C02030008B5024B1B685B6987
:10424C00019308BD3C02030008B5024B1B689B6937
:10425C00019308BD3C02030008B5024B1B68DB69E7
:10426C00019308BD3C02030008B5024B1B681B6A96
:10427C00019308BD3C02030008B5024B1B689B6A06
:10428C00019308BD3C02030008B5024B1B681B6A76
:10429C00019308BD2802030008B5024B1B685B6A3A
:1042AC00019308BD2802030008B5024B1B689B6AEA
:1042BC00019308BD2802030008B5024B1B68DB6A9A
:1042CC00019308BD2802030008B5024B1B681B6B49
:1042DC00019308BD2802030008B5024B1B685B6BF9
:1042EC00019308BD2802030008B5024B1B681B6C28
:1042FC00019308BD2802030008B5024B1B681B681C
:10430C00019308BD4C02030008B5024B1B685B68A7
:10431C00019308BD4C02030008B5024B1B681B69D6
:10432C00019308BD4C02030008B5024B1B685B6986
:10433C00019308BD4C02030008B5024B1B689B6936
:10434C00019308BD4C02030008B5024B1B68DB69E6
:10435C00019308BD4C02030008B5024B1B681B6A95
:10436C00019308BD4C02030008B5024B1B685B6847
:10437C00019308BD2002030008B5024B1B685B6962
:10438C00019308BD2002030008B5034B1B68D3F84A
:10439C008830019308BD00002002030008B5034BD0
:1043AC001B68D3F89430019308BD00002002030071
:1043BC0008B5024B1B685B68019308BD4002030003
:1043CC0008B5024B1B689B68019308BD40020300B3
:1043DC0008B5024B1B68DB68019308BD4002030063
:1043EC0008B5024B1B681B69019308BD4002030012
:1043FC0008B5024B1B685B69019308BD40020300C2
:10440C0008B5024B1B689B69019308BD4002030071
:10441C0008B5024B1B68DB69019308BD4002030021
:10442C0008B5024B1B681B6A019308BD40020300D0
:10443C0008B5024B1B681B6B019308BD40020300BF
:10444C0008B5024B1B685B6B019308BD400203006F
:10445C0008B5024B1B68DB6B019308BD44020300DB
:10446C0008B5024B1B681B68019308BD1C020300B6
:10447C0008B5024B1B685B68019308BD1C02030066
:10448C00002211464068FFF7CBBF0022114640685E
:10449C00FFF7D6BF00224068FFF7CABF002281F0A9
:1044AC0001014068FFF7B4BF00231A461946406863
:1044BC00FFF7A6BF00231A4619464068FFF798BFBE
:1044CC00002211464068FFF78BBF0022114640685E
:1044DC00FFF776BF002202214068FFF779BF002367
:1044EC001A464068FFF764BF024B03225A60024A27
:1044FC001A607047D0E3032050530D0010B50446EA
:10450C0001700846FFF730FE00236360204610BDA3
:10451C000078FFF731BE10B50446006818B1FFF7FC
:10452C00A7FF0023236010BD10B50446FFF7F3FF6F
:10453C00204610BD10B5094C00204FF6FF732060CB
:10454C00A080A07120816381FFF70EFF2046044AF2
:10455C000449BDE8104000F023BD00BFD8E30320A0
:10456C00C4E3032035450D0010B50446006808B1BE
:10457C00FFF73AFE204610BD10B5064C002320462E
:10458C002360FFF729FE2046034A0449BDE810408A
:10459C0000F006BDE4E30320C4E3032075450D00E1
:1045AC00F8B506460D468F180024BD420CD0336872
:1045BC0015F8011B9B6830469847002801DB044422
:1045CC00F3E7002C08BF04462046F8BD70B505463D
:1045DC000C46084649B100F097FE2B68024621466E
:1045EC002846DB68BDE87040184770BD03689B68BF
:1045FC00184738B50D210546FFF7F8FF0A21044688
:10460C002846FFF7F3FF204438BD38B50546FFF7C1
:10461C00DDFF04462846FFF7ECFF204438BD30B5DB
:10462C008BB00B4600218DF82410012A98BF0A226A
:10463C000DF12304B3FBF2F505FB123303F0FF037A
:10464C00092B94BF30333733DBB2214604F80139E0
:10465C002B46002DEED1FFF7B9FF0BB030BD00009B
:10466C00014B024A1A607047E8E30320EF530D0038
:10467C00024B1A68024B1A60704700BF5CE30320C0
:10468C00ECE303200021FFF777BE10B583680446E6
:10469C0013B1032201469847204610BD10B50446BD
:1046AC00FFF7F3FF204610BD0348044A04490023DA
:1046BC00836000F075BC00BFF0E30320C4E303206B
:1046CC00A9460D0008B50C4B33B100F057F903683F
:1046DC001B699847002809DC084B63B100F0D0F93E
:1046EC0003681B699847002803DC08BDAFF3008002
:1046FC00F2E7AFF3008008BD0000000000000000EE
:10470C0008B5FFF7DFFFFFF747FD014B186008BD49
:10471C0030E703200248034A0349121A00F0B8BDDF
:10472C0000F4032004F4032060560D0007B50023A9
:10473C0000931A466FF07701FFF730FE03B05DF877
:10474C0004FB000007B543880A2B08D0502B09D175
:10475C00094B1B683BB103B05DF804EB1847FFF73E
:10476C00E5FF06E0002300931A466FF07701FFF790
:10477C0015FE03B05DF804FB00E4032038B5104CC3
:10478C00104D2368AB42104B0CBF012200221A7053
:10479C0002D0FFF7BFFF2560FFF7F6FC044600F0E0
:1047AC008BFD0A4B13B12046AFF300800021074864
:1047BC00FFF74EFE00210648BDE83840FFF7E4BD88
:1047CC0000F403201E1C279A04E4032000000000C0
:1047DC0051470D00704710B51821044600F0EEFB50
:1047EC00204610BDF0B5037D062B8DB00E4600F1B2
:1047FC0004074FF0000402D000F1080518E00CADDE
:10480C00394605F8304D2F232A460A20FFF7F4FCD1
:10481C00284600F079FD33680246DB6829463046AD
:10482C0098470FE024B12E213046FFF7DFFE0444F9
:10483C0015F8011D0A223046FFF7F1FEBD42044473
:10484C00F0D120460DB0F0BD10B5054B0446112239
:10485C0040F8043B002100F026FD204610BD00BFAF
:10486C0090540D000346074A10B543F8042B01F190
:10487C00100251F8044B43F8044B9142F9D10A78D9
:10488C001A7010BD90540D0010B59DF8084044EA04
:10489C00032343EA024242EA0161042341600375A7
:1048AC0010BD37B50D788B784A78C97800912946B8
:1048BC00FFF7EAFF03B030BD41747047704708B58D
:1048CC000021007CFFF738FD30EA200028BF4FF0B4
:1048DC00FF3008BD08B50121007CFFF72DFD30EA43
:1048EC00200028BF4FF0FF3008BD08B5007CFFF753
:1048FC001BFD20EAE07008BD08B5007CFFF70CFD3D
:10490C0020EAE07008BD007CFFF726BD10B514212D
:10491C00044600F053FB204610BD38B50446007C1D
:10492C000D46FFF701FD002801DC607C28B129460B
:10493C00207CFFF709FD20EAE07038BD10B5044675
:10494C00002363604FF47A73A360054B236001234B
:10495C000846217463741146FFF7CEFC204610BD47
:10496C00A4540D000022007CFFF7CEBC10B514221D
:10497C000446002100F097FC204610BD30B50E4DCA
:10498C0087B001A8FFF7F2FF296811F0010410D1DC
:10499C002846FFF77EFB60B101AA21460748FFF7C6
:1049AC00CDFF2846FFF77AFB054A0649034800F07D
:1049BC00F7FA024807B030BD08E403200CE40320EA
:1049CC00C4E30320C9480D0070474174704708B513
:1049DC00007CFFF751FC20EAE07008BD08B5007CB4
:1049EC00FFF722FC20EAE07008BD08B5007CFFF759
:1049FC002BFC30EA200028BF4FF0FF3008BD08B573
:104A0C00007CFFF719FC30EA200028BF4FF0FF3084
:104A1C0008BD007CFFF720BC10B51421044600F043
:104A2C00CDFA204610BD70B5457C04460E4625B91E
:104A3C00007CFFF721FC002805DD3146207CBDE819
:104A4C007040FFF7E9BB284670BD000010B5044666
:104A5C0008461146002262604FF47A72A260054A41
:104A6C0022600122207462741A46FFF7CDFB2046A7
:104A7C0010BD00BFD4540D00007CFFF7F5BB000047
:104A8C0038B50C4D296811F0010411D12846FFF7F7
:104A9C0000FB68B1084A094B09482146FFF7D6FFCD
:104AAC002846FFF7FBFA074A0749054800F078FA51
:104ABC00034838BDB8E40320BCE4032034E40320ED
:104ACC0020E40320C4E30320D5490D007047F8B55A
:104ADC00064615460C468F18BC4206D0336814F8AF
:104AEC00011B9B6830469847F6E72846F8BD002224
:104AFC00007CFFF7C9BB0021007CFFF7CDBB002178
:104B0C00007CFFF7D1BB0021007CFFF7D5BB002157
:104B1C00007CFFF7D9BB10B51421044600F04EFA07
:104B2C00204610BD10B50446002363604FF47A7321
:104B3C00A360044B2174084623601146FFF7D4FB95
:104B4C00204610BD04550D000021007CFFF7C4BBAE
:104B5C00002211464068FFF763BC002211464068F2
:104B6C00FFF76EBC00224068FFF762BC002281F0A8
:104B7C0001014068FFF74CBC00231A460121406834
:104B8C00FFF73EBC00231A4619464068FFF730BCBD
:104B9C00002211464068FFF723BC002211464068F2
:104BAC00FFF70EBC002202214068FFF711BC002366
:104BBC001A464068FFF7FCBB38B5054688B1046857
:104BCC004CB1A3681BB10322214620469847102103
:104BDC00204600F0F3F928461421BDE8384000F0D7
:104BEC00EDB938BD10B103685B681847704710B554
:104BFC0003680446BBB15868FFF7D6FA78B9236846
:104C0C005A7C12B95868FFF7D7FA23685868FFF72F
:104C1C00DBFA20680023236028B1FFF7CDFF206862
:104C2C0008B1FFF7C9FF204610BD38B50446D0F8CF
:104C3C00C40108B1FFF72BFAD4F8C00108B1FFF793
:104C4C00D3FAD4F8BC5135B12846FFF7D0FF042174
:104C5C00284600F0B3F9206808B1FFF7C3FF2046DF
:104C6C0038BD000010B5044B044640F8083BFFF774
:104C7C00DCFF204610BD00BF2C550D0038B50E4C86
:104C8C000E4B23600025022304F5E4706360A560DD
:104C9C00C4F8C451C4F8C851FFF79EFA084BC4F8C5
:104CAC00CC5184F8D05123602046064A0649BDE811
:104CBC00384000F075B900BF40E5032094550D0055
:104CCC002C550D00C4E30320714C0D00002211463D
:104CDC004068FFF785BB002211464068FFF7A0BB78
:104CEC00002211464068FFF7ABBB00224068FFF77B
:104CFC009FBB002281F001014068FFF789BB0023B4
:104D0C001A4619464068FFF77BBB00231A46194622
:104D1C004068FFF76DBB002211464068FFF750BB9F
:104D2C00002202214068FFF753BB00231A4640685B
:104D3C00FFF73EBB024B04225A60024A1A607047CE
:104D4C0014E7032060550D0000231A464068FFF756
:104D5C002FBB002202214068FFF73ABB002211460C
:104D6C004068FFF72DBB002211464068FFF738BBA7
:104D7C0000231A4619464068FFF73ABB00231A462F
:104D8C0019464068FFF73CBB002281F001014068E6
:104D9C00FFF73EBB00224068FFF74ABB00221146DA
:104DAC004068FFF74DBB002211464068FFF738BB47
:104DBC002DE9F043002495B016460D460746FFF743
:104DCC0043FD214620220CA8009400F06CFA4023ED
:104DDC000C9321466B460CAA3046FFF7ADF90446FE
:104DEC00002844D1024601216868FFF7F9FA022134
:104DFC00804622466868FFF7F3FA009E81462146FA
:104E0C00002E34D0002932D17368022B02D00A2B29
:104E1C0009D02AE0B8F1000F27D071693846043167
:104E2C00FFF73FFD20E0B9F1000F1ED0746911228D
:104E3C0001A800F038FA06238DF8143001AD04F106
:104E4C0008031834186859682A4603C20833A34269
:104E5C001546F7D101A906A807ADFFF703FD0FCD45
:104E6C003C1D0FC42B6823700121F669C8E700981C
:104E7C00FFF75AF9384615B0BDE8F083024B034AE8
:104E8C001A6000225A6070471CE7032094550D00ED
:104E9C0070B5184E316811F0010504460AD1304640
:104EAC00FFF7F7F830B129461348FFF727FB3046D8
:104EBC00FFF7F4F81048FFF72BFB28B1A4F10B0314
:104ECC00022B01D8002070BD00F044F8FFF73CFE27
:104EDC0008B1012CF6D9FFF7D3FDFFF7CDFD18B1C2
:104EEC00A4F10903012BEDD9232C8CBF0020012048
:104EFC0070BD00BF24E7032028E70320232838B522
:104F0C0004460D460AD8FF2908D0FFF7C1FF28B187
:104F1C0029462046BDE83840FFF71EB938BD0000D1
:104F2C0070B5044614252A46094E002100F0BBF941
:104F3C00258020253146A5602561284600F040F8E3
:104F4C0031466060284600F03BF8E060204670BDBA
:104F5C00C0550D0030B50E4D296811F0010487B015
:104F6C0013D12846FFF795F878B101A8FFF7D8FFC1
:104F7C0001AA21460748FFF7D5FD2846FFF78EF812
:104F8C00054A0649034800F00BF8024807B030BD4B
:104F9C0034E7032038E70320C4E30320D94A0D008B
:104FAC000B460146184600F065B90000024B186824
:104FBC00BFF35F8F704700BF4CE70320FFF765B866
:104FCC0000F000B810B5002814BF04460124204698
:104FDC00FFF746FA20B9FFF7E9FF08B18047F6E77B
:104FEC0010BD0000184B1A68D1075CBF01221A6073
:104FFC00164B1A68D2075CBF01221A60144B1A6850
:10500C00D0075CBF01221A60124B1A68D1075CBF33
:10501C0001221A60104B1A68D2075CBF01221A6079
:10502C000E4B1A68D0075CBF01221A600C4B1A6831
:10503C00D1075CBF01221A600A4B1A68D2075CBF09
:10504C0001221A60704700BF6CE7032068E7032059
:10505C0064E7032060E703205CE7032058E70320A4
:10506C0054E7032050E70320244B1A68D0075CBF99
:10507C0001221A60224B1A68D1075CBF01221A6008
:10508C00204B1A68D2075CBF01221A601E4B1A68AB
:10509C00D0075CBF01221A601C4B1A68D1075CBF99
:1050AC0001221A601A4B1A68D2075CBF01221A60DF
:1050BC00184B1A68D0075CBF01221A60164B1A688D
:1050CC00D1075CBF01221A60144B1A68D2075CBF6F
:1050DC0001221A60124B1A68D0075CBF01221A60B9
:1050EC00104B1A68D1075CBF01221A600E4B1A686C
:1050FC00D2075CBF01221A60704700BF9CE70320F7
:10510C0098E7032094E7032090E703208CE7032023
:10511C0088E7032084E7032080E703207CE7032053
:10512C0078E7032074E7032070E70320244B1A6808
:10513C00D0075CBF01221A60224B1A68D1075CBFF2
:10514C0001221A60204B1A68D2075CBF01221A6038
:10515C001E4B1A68D0075CBF01221A601C4B1A68E0
:10516C00D1075CBF01221A601A4B1A68D2075CBFC8
:10517C0001221A60184B1A68D0075CBF01221A6012
:10518C00164B1A68D1075CBF01221A60144B1A68BF
:10519C00D2075CBF01221A60124B1A68D0075CBFA1
:1051AC0001221A60104B1A68D1075CBF01221A60E9
:1051BC000E4B1A68D2075CBF01221A60704700BF01
:1051CC00CCE70320C8E70320C4E70320C0E7032093
:1051DC00BCE70320B8E70320B4E70320B0E70320C3
:1051EC00ACE70320A8E70320A4E70320A0E70320F3
:1051FC00184B1A68D1075CBF01221A60164B1A684B
:10520C00D2075CBF01221A60144B1A68D0075CBF2E
:10521C0001221A60124B1A68D1075CBF01221A6076
:10522C00104B1A68D2075CBF01221A600E4B1A6829
:10523C00D0075CBF01221A600C4B1A68D1075CBF07
:10524C0001221A600A4B1A68D2075CBF01221A604D
:10525C00704700BFECE70320E8E70320E4E70320F6
:10526C00E0E70320DCE70320D8E70320D4E70320A2
:10527C00D0E7032010B5054C13462CB10A46014665
:10528C000220AFF3008010BD204610BD00000000CE
:10529C0010B5431E0A44914204D011F8014B03F897
:1052AC00014FF8E710BD02440346934202D003F8C5
:1052BC00011BFAE77047000038B5124B1C68A36B52
:1052CC000546D3B91820FFF7CBF843F20E33A06391
:1052DC0003804AF6CD33438041F2342383804EF26F
:1052EC006D63C3804DF6EC630381052343810B236F
:1052FC00838101220023C0E90423A36B00221D61DA
:10530C005A6138BDC0E30320034613F8012B002A71
:10531C00FBD1181A013870471D400D0059400D0083
:10532C0085400D0089400D000000000068616C6C28
:10533C002073656E736F720072706D000000000058
:10534C0000000000EB440D00E1440D00D7440D00BB
:10535C00CD440D00C1440D00B5440D00A9440D0011
:10536C00A1440D0097440D008D440D00BD4D0D0062
:10537C00626175640053657269616C005365726992
:10538C00616C31007479706500706172616D0063DD
:10539C006D6400696400686E64007374726D0066FD
:1053AC00696C74006C766C0061646448616E646C4A
:1053BC0065720072656D6F766548616E646C6572BE
:1053CC0000656E756D48616E646C657273004A534E
:1053DC004F4E53747265616D4C6F6748616E646CAF
:1053EC0065720061707000253031307520005D20D1
:1053FC00002564002C200028293A2000205B006343
:10540C006F6465203D200025690064657461696CDA
:10541C0073203D20000D0A0066006C6E00666E0065
:10542C00636F64650064657461696C006E6F6E65B2
:10543C0000747261636500696E666F007761726EED
:10544C00006572726F720070616E696300616C6CE2
:10545C00005A00252B3033643A253032750025591B
:10546C002D256D2D25645425483A254D3A25532577
:10547C007A0061736374696D6500000000000000C0
:10548C0000000000F1470D00E1470D00E3470D005F
:10549C000000000000000000C9480D0019490D0073
:1054AC0027490D00AD450D0005490D00CB480D00F9
:1054BC00E1480D0013490D00F7480D00C5480D00DB
:1054CC000000000000000000D5490D00254A0D0029
:1054DC00334A0D00AD450D00E9490D000B4A0D0096
:1054EC00F7490D001F4A0D00D7490D00DB490D008F
:1054FC000000000000000000D94A0D00234B0D00F5
:10550C00FB4A0D00DB4A0D00034B0D000B4B0D004D
:10551C00134B0D001B4B0D000000000000000000A1
:10552C00BB4B0D00B14B0D00A74B0D009D4B0D005F
:10553C00914B0D00854B0D00794B0D00714B0D00FF
:10554C00674B0D005D4B0D00BD4D0D0000000000C4
:10555C0000000000374D0D002D4D0D00234D0D00AA
:10556C00D94C0D00174D0D000B4D0D00FF4C0D00CF
:10557C00F74C0D00ED4C0D00E34C0D00BD4D0D0036
:10558C000000000000000000554D0D005F4D0D00A7
:10559C00694D0D00734D0D007D4D0D00894D0D00B5
:1055AC00954D0D00A14D0D00A94D0D00B34D0D00F5
:1055BC00BD4D0D00000000000000000000000000C8
:1055CC0000000000000000000000000000000000CF
:1055DC0000000000000000000000000000000000BF
:1055EC0000000000000000000000000000000000AF
:1055FC00000000000000000000000000000000009F
:10560C00000000000000000000000000000000008E
:10561C0000000000000000004300000031410D00BC
:10562C00F5440D0041450D0085450D006D460D00FE
:10563C007D460D00B5460D00894C0D00414D0D0009
:10564C00894E0D00F14F0D0075500D0039510D00B4
:04565C00FD510D00EF
:045660000000000046
:10566400060000007E540D0000000000C4550D002B
:10567400E4550D0004560D00000000000000000079
:10568400000000000000000024560D00000000008F
:105694000000000000000000000000000000000006
:1056A40000000000000000000000000000000000F6
:1056B40000000000000000000000000000000000E6
:0C56C400000000000000000060E3032074
:1056D000FFFFFFFF00000102030405060708090A97
:1056E0000B0C0D0E0F101112131415161718191A92
:0856F0001B1C1D1E1F202800D9
:0456F800785634129A
:04000003D000401CCD
:00000001FF
